:020000040800F2
:10000000B804002045010008C7010008BF0100082E
:10001000C3010008B90100087D04000800000000C9
:10002000000000000000000000000000DF010008E8
:10003000BD01000800000000DD010008F102000819
:100040005F0100085F0100085F0100085F01000810
:100050005F0100085F0100085F0100085F01000800
:100060005F0100085F0100085F0100085F010008F0
:100070005F0100085F0100085F0100085F010008E0
:100080005F0100085F0100085F0100085F010008D0
:100090005F0100085F0100085F0100085F010008C0
:1000A0005F0100085F0100085F0100085F010008B0
:1000B0005F0100085F0100085F0100085F010008A0
:1000C0005F0100085F0100085F0100085F01000890
:1000D0005F0100089103000895030008D903000898
:1000E0005F0100085F0100085F0100085F01000870
:1000F0005F0100085F0100085F0100085F01000860
:100100005F0100085F0100085F0100085F0100084F
:100110005F0100085F0100085F0100085F0100083F
:100120005F0100085F0100085F0100085F0100082F
:10013000DFF80CD000F02EF8004800479D060008BC
:10014000B80400200648804706480047FEE7FEE75F
:10015000FEE7FEE7FEE7FEE7FEE7FEE7FEE7FEE777
:10016000310300083101000830B50B46014600207C
:100170002022012409E021FA02F59D4205D303FA69
:1001800002F5491B04FA02F52844151EA2F10102EA
:10019000F1DC30BD064C074D06E0E06840F001039D
:1001A00094E8070098471034AC42F6D3FFF7C4FF39
:1001B000B0060008D006000800BFFEE7704700BF89
:1001C000FEE700BFFEE7704702490143024A1160A3
:1001D000704700000000FA050CED00E07047704722
:1001E00010B500F001F810BD0CB500200190009092
:1001F0003348006840F480303149086000BF30481F
:10020000006800F4003000900198401C01900098B4
:1002100018B90198B0F5A06FF1D12948006800F431
:10022000003010B10120009001E000200090009803
:10023000012843D12348006840F01000214908609C
:100240000846006820F0030008600846006840F097
:10025000020008601A48406819494860084640682A
:1002600048600846406840F480604860084640683E
:1002700020F47C1048600846406840F4E81048606C
:100280000846006840F08070086000BF0C480068B5
:1002900000F000700028F9D00948406820F0030001
:1002A000074948600846406840F00200486000BFC7
:1002B0000348406800F00C000828F9D10CBD00008C
:1002C0000010024000200240042808D14FF0E02135
:1002D000096941F004014FF0E022116107E04FF09D
:1002E000E021096921F004014FF0E022116170471B
:1002F0007047000010B504466FF00400FFF7E4FFFC
:10030000E11704EB5171C1F3C701074A11701046A0
:10031000007800EB4001C1EBC0104FF6FF7101EA1D
:10032000C0000249088010BD00000020020000202B
:1003300010B51348006840F00100114908600846F4
:100340004068104908400E494860084600680E4958
:1003500008400B4908600846006820F480200860C7
:100360000846406820F4FE0048604FF41F00886093
:10037000FFF736FF4FF000600449086010BD000031
:10038000001002400000FFF8FFFFF6FE08ED00E05D
:100390007047000010B500240B4800F066F8C4B2A6
:1003A00021460AA000F06CF809480A49096844543B
:1003B00008480068401C074908600846006864282F
:1003C00001D90020086010BD0044004025630000F2
:1003D0000C0000200400002010B540F22551064812
:1003E00000F019F838B1044800F03FF8C4B22146D3
:1003F000014800F03FF810BD0048004002460020D0
:10040000B1F5007F00D100BF13880B400BB1012074
:1004100000E00020704770B502460024002300254C
:10042000002040F66A16B14200D100BFC1F3421568
:1004300001F01F03012606FA03F3012D02D196896C
:10044000334006E0022D02D1168A334001E0968A3D
:1004500033400C12012606FA04F41688344013B116
:100460000CB1012000E0002070BD01468888C0F377
:1004700008007047C1F308028280704700BFFEE7A2
:100480000FB4054B10B503A9044A029800F018F800
:1004900010BC5DF814FB000079060008080000207D
:1004A00002E008C8121F08C1002AFAD1704770473D
:1004B000002001E001C1121F002AFBD1704700009B
:1004C0002DE9FF4F8BB09A460F460546002606E001
:1004D00025280BD052460D9990476D1C761C287824
:1004E0000028F5D10FB03046BDE8F08F0024A046BB
:1004F0000122604900E0044315F8013F203B02FA65
:1005000003F00842F7D128782E2817D115F8010FEB
:1005100044F004042A280ED06FF02F022878A0F1AE
:10052000300109290AD808EB880102EB410100EBF0
:1005300001086D1CF2E757F8048B6D1C28786928B8
:100540003ED006DC0028CDD063280BD0642804D12F
:1005500036E0732810D075284BD052460D9990473D
:10056000761C85E017F8040B8DF8000000208DF84C
:100570000100E946012003E057F8049B4FF0FF30EB
:1005800061074FF0000401D40AE0641C44450DDA11
:100590008442FADB19F804100029F6D106E0641C45
:1005A0008442FCDB19F804100029F8D1264404E049
:1005B00019F8010B52460D999047641EF8D257E086
:1005C00001CF4FF00A0B002802DA40422D2102E051
:1005D000210504D52B218DF82410012103E0E1072A
:1005E00005D02021F7E70DF1200908910CE000214A
:1005F000F9E701CF4FF00A0BF9E75946FFF7B4FDD1
:1006000001F1300209F8012D0028F6D1ADEB090007
:1006100000F1200B600701D44FF00108D84502DD3E
:10062000A8EB0B0000E000208046002406E009A8AB
:100630005246005D0D999047641C761C08988442D0
:10064000F5DB04E0302052460D999047761CB8F156
:100650000001A8F10108F5DC05E019F8010B52468C
:100660000D999047761CBBF10001ABF1010BF4DC56
:100670006D1C34E70928010070B504460D46E1B24F
:100680000548FFF7F7FE00BF80210348FFF7B6FEDD
:100690000028F9D0204670BD0038014010B5482030
:1006A000FFF728FE4FF4A060FFF78EFD002010BD7D
:1006B000D0060008000000200C000000A004000884
:1006C000DC0600080C000020AC040000B0040008A8
:0C06D0000000000000000000000000001E
:0400000508000131BD
:00000001FF
