:020000040800F2
:10000000C804002045010008930300088B03000882
:100010008F0300082D0200080F0D000800000000EB
:100020000000000000000000000000007105000852
:1000300055020008000000001904000845070008E8
:100040005F0100085F0100085F0100085F01000810
:100050005F0100085F0100085F0100085F01000800
:100060005F0100085F0100085F0100085F010008F0
:100070005F0100085F0100085F0100085F010008E0
:100080005F0100085F0100085F0100085F010008D0
:100090005F0100085F0100085F0100085F010008C0
:1000A0005F0100085F0100085F0100085F010008B0
:1000B0005F0100085F0100085F0100085F010008A0
:1000C0005F0100085F0100085F0100085F01000890
:1000D0005F010008E108000889090008810A00089A
:1000E0005F0100085F0100085F0100085F01000870
:1000F0005F0100085F0100085F0100085F01000860
:100100005F0100085F0100085F0100085F0100084F
:100110005F0100085F0100085F0100085F0100083F
:100120005F0100085F0100085F0100085F0100082F
:10013000DFF80CD000F068F800480047E110000834
:10014000C80400200648804706480047FEE7FEE74F
:10015000FEE7FEE7FEE7FEE7FEE7FEE7FEE7FEE777
:100160008507000831010008D2B201E000F8012B38
:10017000491EFBD270470022F6E710B513460A4627
:1001800004461946FFF7F0FF204610BD421E12F844
:10019000013F002BFBD111F8013B02F8013B002B82
:1001A000F9D1704730B505462A460B4612F8010BC7
:1001B00013F8014B08B1A042F8D01CB1002802D0BE
:1001C0006D1CF1E7284630BD034611F8012B00F8FD
:1001D000012B002AF9D11846704730B50B4601466D
:1001E00000202022012409E021FA02F59D4205D3D6
:1001F00003FA02F5491B04FA02F52844151EA2F180
:100200000102F1DC30BD0000064C074D06E0E0685D
:1002100040F0010394E8070098471034AC42F6D34D
:10022000FFF78AFFE81200080813000800BFFEE786
:10023000002004E00021054A1154411C88B26428C2
:10024000F8DB0021024A1160704700002000002006
:10025000180000207047000010B5044621460448ED
:10026000FFF7A0FF08B1012010BD0020FCE700004F
:10027000200000202DE9F041024600250026002044
:1002800000230024002791F803C00CF00F0591F81B
:1002900003C00CF0100CBCF1000F03D091F802C0A9
:1002A0004CEA050591F800C0BCF1000F31D014688C
:1002B00000202BE04FF0010C0CFA00F3B1F800C065
:1002C0000CEA03069E4220D183004FF00F0C0CFA7B
:1002D00003F7BC4305FA03FC4CEA040491F803C09D
:1002E000BCF1280F06D14FF0010C0CFA00FCC2F84B
:1002F00014C00AE091F803C0BCF1480F05D14FF0DB
:10030000010C0CFA00FCC2F810C0401C0828D1D324
:100310001460B1F800C0BCF1FF0F34DD5468002058
:100320002EE000F1080C4FF0010808FA0CF3B1F8C8
:1003300000C00CEA03069E4221D183004FF00F0C4F
:100340000CFA03F7BC4305FA03FC4CEA040491F8E9
:1003500003C0BCF1280F05D100F1080C08FA0CF815
:10036000C2F8148091F803C0BCF1480F07D100F126
:10037000080C4FF0010808FA0CF8C2F81080401C75
:100380000828CED35460BDE8F08100BFFEE700BF6F
:10039000FEE7704770B5002100230F22C47804B334
:1003A000154C246804F4E064C4F5E064210AC1F14A
:1003B0000403CA40447804FA03F1847814402143CA
:1003C00009010E4C0678A155047804F01F0501249C
:1003D000AC4005786D11AD0005F1E025C5F8004190
:1003E00009E0047804F01F050124AC40044D0678B0
:1003F000761145F8264070BD0CED00E000E400E009
:1004000080E100E002490143024A116070470000A8
:100410000000FA050CED00E07047000029B1064A23
:10042000D2690243044BDA6104E0034AD269824391
:10043000014BDA61704700000010024029B1064A02
:1004400012690243044B1A6104E0034A12698243B1
:10045000014B1A61704700000010024029B1064AA2
:1004600092690243044B9A6104E0034A9269824311
:10047000014B9A61704700000010024029B1064A02
:10048000D2680243044BDA6004E0034AD268824334
:10049000014BDA60704700000010024030B50021C7
:1004A0000022002400232D4D6D6805F00C0121B1C0
:1004B000042905D0082923D105E0294D056022E053
:1004C000274D05601FE0254D6D6805F47012234D22
:1004D0006D6805F48034022505EB92421CB9214D6C
:1004E000554305600BE01D4D6D6805F400351DB1E9
:1004F0001C4D5543056002E0194D5543056002E06F
:10050000174D056000BF00BF144D6D6805F0F00188
:100510000909154D6B5C0568DD4045600F4D6D6840
:1005200005F4E061090A104D6B5C4568DD408560AB
:100530000A4D6D6805F46051C90A0B4D6B5C456846
:10054000DD40C560054D6D6805F44041890B074DE0
:100550006B5CC568B5FBF3F5056130BD001002406A
:1005600000127A0000093D00000000201000002069
:100570007047000070B505460E4614211A48FFF773
:10058000FAFD00F02DFD0446012C04D13146284629
:1005900000F0DAFD0446012C13D114A1124800F03A
:1005A00019FC114800F01EF9322000F061FD14A082
:1005B00000F018F9164800F015F910A000F012F933
:1005C00011E0224613A1084800F004FC214611A0C6
:1005D00000F0F0FB044800F005F99623032211A176
:1005E00011A000F031F970BD84000020B3C9B9A694
:1005F000B7A2CBCDB5BD7365727665720D0A0000EA
:10060000CAD5B5BDBBD8B8B4A3BA0D0A0000000066
:1006100020000020B4EDCEF3B4FAC2EB203A20253E
:10062000640D0A004F4B000041542B434950434C8A
:100630004F53450010B500F001F810BD0CB5002077
:10064000019000903348006840F4803031490860E0
:1006500000BF3048006800F4003000900198401C52
:100660000190009818B90198B0F5A06FF1D1294810
:10067000006800F4003010B10120009001E000207B
:1006800000900098012843D12348006840F01000F2
:10069000214908600846006820F003000860084609
:1006A000006840F0020008601A4840681949486034
:1006B0000846406848600846406840F480604860EA
:1006C0000846406820F47C1048600846406840F4C2
:1006D000E81048600846006840F08070086000BF7D
:1006E0000C48006800F000700028F9D00948406804
:1006F00020F00300074948600846406840F00200C7
:10070000486000BF0348406800F00C000828F9D199
:100710000CBD00000010024000200240042808D157
:100720004FF0E021096941F004014FF0E02211612E
:1007300007E04FF0E021096921F004014FF0E022C9
:10074000116170477047000010B504466FF0040057
:10075000FFF7E4FFE11704EB5171C1F3C701074A4A
:1007600011701046007800EB4001C1EBC0104FF64D
:10077000FF7101EAC0000249088010BD140000208A
:100780001600002010B51348006840F00100114920
:10079000086008464068104908400E49486008460D
:1007A00000680E4908400B4908600846006820F4BC
:1007B000802008600846406820F4FE0048604FF43E
:1007C0001F008860FFF736FF4FF0006004490860A3
:1007D00010BD0000001002400000FFF8FFFFF6FE11
:1007E00008ED00E010B504460BE000BF40210748CB
:1007F00000F0BCF90028F9D014F8011B034800F000
:1008000082FA20780028F0D110BD000000380140A5
:1008100010B5044621460AA000F0CCFA0BE000BF58
:100820004021084800F0A2F90028F9D014F8011B73
:10083000044800F068FA20780028F0D110BD0000CC
:1008400025730000004400402DE9F04180460C462D
:1008500015461E4600270EE0404600F02BF8B0B2C9
:1008600000F006FC2046FFF7F7FC10B10120BDE8C0
:10087000F081781CC7B2AF42EEDB0020F7E72DE92C
:10088000F04180460C4615461E4600270EE04046C5
:1008900000F01EF8B0B200F0EBFB2046FFF7DCFCE6
:1008A00010B10120BDE8F081781CC7B2AF42EEDB89
:1008B0000020F7E710B50446FFF7BAFC2046FFF723
:1008C000A7FF02A0FFF7A4FF10BD00000D0A000063
:1008D00010B50446FFF7ACFC2046FFF799FF10BDAA
:1008E0007047000010B586B00446012144F20400B0
:1008F000FFF7B4FD224800F0EBF84FF40070ADF8BC
:10090000140018208DF8170003208DF8160005A993
:100910001C48FFF7AFFC4FF48060ADF814000420D2
:100920008DF8170005A91748FFF7A4FC01940020D3
:10093000ADF80800ADF80A00ADF80C00ADF81000F5
:100940000C20ADF80E0001A90D4800F06BF9252030
:100950008DF8000002208DF8010001208DF80200C2
:100960008DF803006846FFF715FD0121044800F0EB
:10097000A2F84021024800F095F806B010BD000032
:10098000003801400008014010B500240B4800F079
:10099000B5F9C4B221460AA000F00CFA09480A4988
:1009A0000968445408480068401C07490860084624
:1009B0000068642801D90020086010BD0044004090
:1009C00025630000200000201800002010B586B02C
:1009D000044601214804FFF721FD01210420FFF70F
:1009E0003DFD254800F074F80420ADF814001820EF
:1009F0008DF8170003208DF8160005A91F48FFF792
:100A000039FC0820ADF8140004208DF8170005A962
:100A10001A48FFF72FFC01940020ADF80800ADF84C
:100A20000A00ADF80C00ADF810000C20ADF80E0077
:100A300001A9114800F0F6F826208DF800000120E9
:100A40008DF8010000208DF8020001208DF80300D0
:100A50006846FFF79FFC012240F22551064800F04E
:100A6000BCF80121044800F026F84021024800F0BB
:100A700019F806B010BD0000004400400008014015
:100A800010B540F22551064800F07DF838B1044811
:100A900000F034F9C4B22146014800F034F910BD29
:100AA0000048004001F40072B2F5007F00D100BFA1
:100AB000CA430280704721B1828942F40052828188
:100AC00004E082894DF6FF731A408281704700006E
:100AD00010B504462048844209D101218803FFF75C
:100AE000CDFC00214FF48040FFF7C8FC32E01B48EA
:100AF000844209D101214804FFF7A0FC00214FF4F2
:100B00000030FFF79BFC25E01548844209D1012104
:100B10008804FFF793FC00214FF48020FFF78EFC40
:100B200018E01048844209D10121C804FFF786FC6F
:100B300000214FF40020FFF781FC0BE00A488442BB
:100B400008D101210805FFF779FC00214FF480103E
:100B5000FFF774FC10BD0000003801400044004065
:100B600000480040004C0040005000400246002079
:100B7000B1F5007F00D100BF13880B400BB10120FD
:100B800000E00020704770B50246002400230025D5
:100B9000002040F66A16B14200D100BFC1F34215F1
:100BA00001F01F03012606FA03F3012D02D19689F5
:100BB000334006E0022D02D1168A334001E0968AC6
:100BC00033400C12012606FA04F41688344013B19F
:100BD0000CB1012000E0002070BDF0B503460024F8
:100BE00000260025002040F66A17B94200D100BF58
:100BF0001846C1F3421401F01F06012707FA06F553
:100C0000012C01D10C3004E0022C01D1103000E0A5
:100C100014301AB107682F43076002E00768AF433A
:100C20000760F0BD2DE9F04786B005460E4600246A
:100C3000A24600BFA1460027B08900B100BF2F46E1
:100C40002C8A4CF6FF700440F08804432C82AC8957
:100C50004EF6F3100440B088318908437189084387
:100C60000443AC81AC8A4FF6FF400440B089044392
:100C7000AC8201A8FFF712FC1F48874202D1DDF8C1
:100C800010A001E0DDF80CA0A88900F4004040B1FC
:100C90000AEBCA0000EB0A1031684900B0FBF1F81A
:100CA00007E00AEBCA0000EB0A1031688900B0FBCC
:100CB000F1F86420B8FBF0F004012009642101FB85
:100CC0001089A88900F4004040B1322000EBC9002F
:100CD000B0FBF1F000F00700044308E0322000EB25
:100CE00009106421B0FBF1F000F00F0004432C81E7
:100CF00006B0BDE8F0870000003801400146888852
:100D0000C0F308007047C1F308028280704700BF3B
:100D1000FEE700002DE9F04105460027FFF788FABD
:100D20003CE020A0FFF7C6FD642000F0A1F90024FC
:100D30002CE01F48005D2B2826D11D49601C085C53
:100D4000432821D1A01C085C52281DD1E01C085C5E
:100D5000452819D1201D085C472815D1601D085C65
:100D60003A2811D1E01D085C31280DD104F10900A9
:100D7000085C312804D004F10900085C352803D14F
:100D800001270120BDE8F081601CC4B2642CD0DBD7
:100D9000701CC6B2AE4201DD0020F3E7002FC0D0C8
:100DA0000020EFE741542B435245473F000000002D
:100DB000200000200FB4054B10B503A9044A029887
:100DC00000F02CF810BC5DF814FB0000BD1000080A
:100DD0001C0000200FB4084B10B504A902AA039808
:100DE00000F01CF8044602A9002000F0F3F82046A9
:100DF00010BC5DF814FB0000D50F000802E008C825
:100E0000121F08C1002AFAD170477047002001E084
:100E100001C1121F002AFBD1704700002DE9FF4FCE
:100E20008BB09A460F460546002606E025280BD0D3
:100E300052460D9990476D1C761C28780028F5D1F4
:100E40000FB03046BDE8F08F0024A0460122604973
:100E500000E0044315F8013F203B02FA03F008428A
:100E6000F7D128782E2817D115F8010F44F0040483
:100E70002A280ED06FF02F022878A0F1300109291E
:100E80000AD808EB880102EB410100EB01086D1C58
:100E9000F2E757F8048B6D1C287869283ED006DCF1
:100EA0000028CDD063280BD0642804D136E0732805
:100EB00010D075284BD052460D999047761C85E08E
:100EC00017F8040B8DF8000000208DF80100E946AA
:100ED000012003E057F8049B4FF0FF3061074FF00B
:100EE000000401D40AE0641C44450DDA8442FADBB4
:100EF00019F804100029F6D106E0641C8442FCDBDA
:100F000019F804100029F8D1264404E019F8010B5F
:100F100052460D999047641EF8D257E001CF4FF02A
:100F20000A0B002802DA40422D2102E0210504D5F7
:100F30002B218DF82410012103E0E10705D02021A9
:100F4000F7E70DF1200908910CE00021F9E701CF46
:100F50004FF00A0BF9E75946FFF73FF901F130026C
:100F600009F8012D0028F6D1ADEB090000F1200BA6
:100F7000600701D44FF00108D84502DDA8EB0B0053
:100F800000E000208046002406E009A85246005DEB
:100F90000D999047641C761C08988442F5DB04E0A8
:100FA000302052460D999047761CB8F10001A8F107
:100FB0000108F5DC05E019F8010B52460D99904740
:100FC000761CBBF10001ABF1010BF4DC6D1C34E7C6
:100FD000092801000A68531C0B601070704700005C
:100FE00038B51B208DF8000000208DF80100322359
:100FF000062216A116A0FFF727FC04462CB9684666
:10100000FFF706FC4FF0FF3038BD3223042211A158
:1010100012A0FFF719FC044614B96FF00100F3E7C2
:101020000320FFF777FE044614B96FF00200EBE7E8
:101030003223022205A10CA0FFF706FC044614B9D6
:101040006FF03200E0E70120DEE700004F4B0000C8
:1010500041540000524541445900000041542B4383
:1010600050494E3F00000000415445300000000050
:101070000146114A12884A434FF0E0235A61002288
:101080009A611A46126942F001021A6100BF4FF0DC
:10109000E022106900F001021AB100F48032002A47
:1010A000F5D04FF0E022126922F001024FF0E02368
:1010B0001A6100229A6170471600002070B504463C
:1010C0000D46E1B20548FFF71EFE00BF8021034830
:1010D000FFF74CFD0028F9D0204670BD00380140D4
:1010E0004820FFF731FB4FF4A060FFF78BF94FF476
:1010F000E130FFF76BFC4FF4E130FFF7F3FB002426
:1011000004E03220FFF7B4FF601CC4B20A2CF8DB05
:101110000CE0074907A0FFF72DFA002404E0C820DF
:10112000FFF7A6FF601CC4B21E2CF8DBF1E700003D
:10113000A41200083131392E32392E3232332E3991
:10114000312C363636360000F8B505460E461A20E4
:101150008DF8000000208DF801006423032237A1E0
:1011600039A0FFF771FB0446012C1DD14623032251
:1011700039A13AA0FFF768FB044614B96FF00D00DF
:10118000F8BD3046FFF744FB0A20FFF771FFFA2352
:10119000032235A16846FFF772FB044614B96FF0CD
:1011A0000800EDE70120EBE74FF4AF73032225A120
:1011B0002FA0FFF749FB044614B96FF00A00DFE7E0
:1011C000642303221FA12DA0FFF73EFB044614B9A0
:1011D0006FF03100D4E72D212C48FEF7CCFF2CA175
:1011E0002A48FEF7F1FF29462848FEF7CFFFFA23E9
:1011F000062212A12548FFF727FB044614B96FF019
:101200000C00BDE74623032213A114A0FFF71CFB2B
:10121000044614B96FF00D00B2E73046FFF7F8FA54
:10122000FA23022210A16846FFF729FB044614B9ED
:101230006FF00800A4E70120A2E70000434F4E4EE4
:10124000454354204F4B000041542B4349505354C5
:1012500041545553000000003E00000041542B4310
:10126000495053454E44000053454E44204F4B00D7
:1012700041542B43474154543D31000041542B43CA
:10128000474143543D312C310000000098000020BC
:1012900041542B43495053544152543D5443502CD4
:1012A00000000000313233343637383937393838B6
:1012B00037393834383436343638343634363837CB
:1012C00034363834333536343834363435363436CB
:1012D00038343536343534353634363834363834B7
:1012E00036343638340000000813000800000020AF
:1012F00020000000FC0D000828130008200000203A
:10130000A80400000C0E0008000000000102030405
:101310000102030406070809020406080000000091
:081320000000000000000000C5
:0400000508000131BD
:00000001FF
