:020000040800F2
:10000000B82D0020450100082D0D00086F0A0008DA
:10001000290D0008110900084B1700080000000016
:100020000000000000000000000000000D0F0008AC
:100030003909000800000000B50D0008D5100008BF
:100040005F0100085F0100085F0100085F01000810
:100050005F0100085F0100085F0100085F01000800
:100060005F0100085F0100085F0100085F010008F0
:100070005F0100085F0100085F0100085F010008E0
:100080005F0100085F0100085F0100085F010008D0
:100090005F0100085F0100085F0100085F010008C0
:1000A0005F0100085F0100085F0100085F010008B0
:1000B0005F0100085F0100085F0100085F010008A0
:1000C0005F0100085F0100085F0100085F01000890
:1000D0005F01000871120008B9130008BD14000880
:1000E0005F0100085F0100085F0100085F01000870
:1000F0005F0100085F0100085F0100085F01000860
:100100005F0100085F0100085F0100085F0100084F
:100110005F0100085F0100085F0100085F0100083F
:100120005F0100085F0100085F0100085F0100082F
:10013000DFF80CD000F0CAFB00480047612400083B
:10014000B82D00200648804706480047FEE7FEE736
:10015000FEE7FEE7FEE7FEE7FEE7FEE7FEE7FEE777
:10016000151100083101000840EA01039B0703D084
:1001700009E008C9121F08C0042AFAD203E011F8E6
:10018000013B00F8013B521EF9D27047D2B201E0A8
:1001900000F8012B491EFBD270470022F6E710B58C
:1001A00013460A4604461946FFF7F0FF204610BDE5
:1001B000421E12F8013F002BFBD111F8013B02F85F
:1001C000013B002BF9D1704730B505462A460B4656
:1001D00012F8010B13F8014B08B1A042F8D01CB182
:1001E000002802D06D1CF1E7284630BD034611F807
:1001F000012B00F8012B002AF9D118467047F0B402
:1002000080EA0102D40F4200B2EB410F02D2024653
:10021000084611464A0042D0C30DDDB2C1F3C752B1
:10022000AD1A202D35DAC1F3160141F4000204B1F4
:100230005242C5F1200602FA06F12A411044B3EBFE
:10024000D05F23D0C4B1012DA0EBC35009DCF0BCBA
:100250004FF0004202EAC352DBB200F5000000F0AA
:1002600007BA400000F1807000EBC350A0F180702D
:1002700040EAD170490009E0490841EAC071A0EBA9
:10028000C35000F50000400800EBC350F0BC00F084
:10029000E6B96142012202EB4101001BF6E7F0BC26
:1002A000704781F00041AAE780F00040A7E730B432
:1002B00080EA010202F0004530F0004221F00040E7
:1002C00013D090B1C30DD40DC2F31601C0F31600C4
:1002D000E41A41F4000140F400027D34914201D35C
:1002E000641C00E04900002C02DA30BC002070479A
:1002F0004FF400000023914201D3891A03434008C0
:100300004FEA4101F7D151B1914202D14FF0004182
:1003100005E002D24FF0010101E06FF0010103EBB3
:10032000C450284430BC00F09AB92DE9FE4F8046F5
:1003300081EA0300C00F0C46009021F0004123F039
:100340000045B8EB0200A94105D24046214690463F
:100350001C460B46024623F00040104347D0270DB1
:10036000C7F30A00C3F30A510290401A01904028D3
:100370006BDAC3F3130040F4801B0098924620B15F
:100380000023D2EB030A63EB0B0B01985946C0F133
:100390004002504600F042F906460D465046594686
:1003A000019A00F04AF910EB08006141002487EA45
:1003B000115284EAE7731A4340D0009A62B3019A5B
:1003C000012A4FEA075215DC001B61EB02014FF0D6
:1003D000004202EA0752CDE90042001C41F58011BB
:1003E00032462B4600F081F903B0BDE8F08F40465D
:1003F0002146F9E7001B61EB0201001C41F5801367
:1004000000185B412018A2F5001747EB030140EAF2
:10041000D570B6196D4111E06D084FEA360645EA10
:10042000C0754FEA0752001B61EB0201001C41F549
:10043000801149084FEA30000019514132462B46DD
:1004400003B0BDE8F04F00F041B900980122400030
:100450000023D0EB020263EBE073009821464FEAE1
:10046000E074B8EB000061EB0401E9E783F00043BE
:100470005BE781F0004158E72DE9F04D81EA030484
:1004800004F0004B21F0004514464FF0000A23F021
:10049000004150EA050220D054EA01021DD0C5F304
:1004A0000A570246C5F31303C1F31300C1F30A56FA
:1004B00040F4801543F48013A7EB0608101BD646C2
:1004C00008F2FD3873EB050002D308F1010801E0E2
:1004D00092185B41B8F1000F03DA00200146BDE835
:1004E000F08D00204FF48011064684460EE0171B65
:1004F00073EB050705D3121B63EB050306434CEAB8
:10050000010C49084FEA300092185B4150EA01079C
:10051000EDD152EA030012D082EA040083EA050119
:10052000084305D0101BAB4106D20122002306E090
:1005300000224FF0004302E06FF0010253101AEB6B
:1005400006004CEB085110EB0A0041EB0B01BDE833
:10055000F04D00F0BBB8C10F80EAE0700844CA0754
:100560009623002100F084B800F0004230F00040F3
:100570000AD0C10D01F56071C0F3160042EA0151C5
:10058000C20840071143704700200146704730B54C
:100590000B46014600202022012409E021FA02F541
:1005A0009D4205D303FA02F5491B04FA02F52844DB
:1005B000151EA2F10102F1DC30BD2DE9F05F054608
:1005C000002092469B4688460646814640241BE012
:1005D000284641464746224600F08AF953465A4685
:1005E000C01A914110D311461846224600F016F861
:1005F0002D1A67EB01084F4622460120002100F02A
:100600000DF817EB00094E41201EA4F10104DFDCB8
:10061000484631462A464346BDE8F09F202A04DB7F
:10062000203A00FA02F1002070479140C2F1200305
:1006300020FA03F3194390407047202A06DBCB17BA
:10064000203A41FA02F043EAE07306E041FA02F38D
:10065000D040C2F12002914008431946704700295A
:10066000A8BF7047401C490008BF20F00100704738
:1006700010B4B0FA80FC00FA0CF050EA010404BF98
:1006800010BC704749B1CCF1200421FA04F411FAEE
:100690000CF118BF012121430843A3EB0C01CB1D32
:1006A0004FEA00614FEA102042BF002010BC7047A3
:1006B00000EBC35010440029A4BF10BC7047401C7D
:1006C000490008BF20F0010010BC704710B5141E8F
:1006D00073F1000408DA401C41F1000192185B41FB
:1006E0001A4301D120F0010010BD2DE9F04D9246D2
:1006F0009B4611B1B1FA81F202E0B0FA80F22032E9
:100700009046FFF78BFF04460F4640EA0A0041EA95
:100710000B0153465A46084313D0114653EA0100D1
:1007200019D0C8F14002504600F0E2F805460E46E6
:10073000504659464246FFF771FF084305D0012055
:1007400004E020463946BDE8F08D0020054346EA26
:10075000E0762C4337430A986305E40AA0EB0800CF
:100760000022FD0A44EA47540A3002D5002001461F
:10077000E9E7010510196941DDE9084500196941FA
:10078000BDE8F04DA2E72DE9FE4F81EA030404F035
:10079000004421F0004100944FF0000B23F000438F
:1007A00050EA01045ED052EA03045BD0C3F30A545A
:1007B000C1F30A552C44A4F2F3340194A0FB025473
:1007C000C1F3130141F48011C3F3130343F4801305
:1007D00001FB024400FB034E840A970A44EA815459
:1007E00047EA8357A4FB076802958D0A05FB078536
:1007F0004FEA932C04FB0C542705029D4FEA065840
:1008000047EA1637B5EB08056EEB070C870E920E1C
:1008100047EA811742EA8312A7FB0201B6EB0B01FC
:1008200064EB00042B0D43EA0C335E1844EB1C50C0
:10083000DA465146E7FB0201C5F313044FEA0B33D6
:1008400043EA14534FEA0432019C43EA0603A4F13D
:100850000C040294009CCDE900B4FFF746FF03B0FE
:10086000BDE8F08F00200146F9E7C1F30A52C1F359
:10087000130140F2FF3341F480119A4202DA002062
:100880000146704740F233439A42A2F2334202DCFF
:10089000524200F02DB8FFF7C1BE000030B5041E73
:1008A00071F1000404DB4FF00044404264EB0101AD
:1008B000141E73F1000405DB1C464FF00043524246
:1008C00063EB0403994208BF904230BD064C074DCC
:1008D00006E0E06840F0010394E807009847103410
:1008E000AC42F6D3FFF728FC0C3200082C3200088B
:1008F000202A04DB203A21FA02F00021704721FA75
:1009000002F3D040C2F120029140084319467047DB
:1009100000BFFEE7002004E00021054A1154411CFD
:1009200088B26428F8DB0021024A11607047000099
:100930001C0100201C0000207047000010B5044678
:1009400021460448FFF740FC08B1012010BD0020FB
:10095000FCE700001C0100202DE9F04102460025C3
:100960000026002000230024002791F803C00CF08B
:100970000F0591F803C00CF0100CBCF1000F03D070
:1009800091F802C04CEA050591F800C0BCF1000FD7
:1009900031D0146800202BE04FF0010C0CFA00F36A
:1009A000B1F800C00CEA03069E4220D183004FF04C
:1009B0000F0C0CFA03F7BC4305FA03FC4CEA0404E1
:1009C00091F803C0BCF1280F06D14FF0010C0CFACE
:1009D00000FCC2F814C00AE091F803C0BCF1480F53
:1009E00005D14FF0010C0CFA00FCC2F810C0401CFD
:1009F0000828D1D31460B1F800C0BCF1FF0F34DD7A
:100A0000546800202EE000F1080C4FF0010808FAAD
:100A10000CF3B1F800C00CEA03069E4221D183001A
:100A20004FF00F0C0CFA03F7BC4305FA03FC4CEA39
:100A3000040491F803C0BCF1280F05D100F1080CA3
:100A400008FA0CF8C2F8148091F803C0BCF1480F02
:100A500007D100F1080C4FF0010808FA0CF8C2F8B1
:100A60001080401C0828CED35460BDE8F08100BF40
:100A7000FEE7000010B500200F4908600F4800682D
:100A800020F00F000D4908600846006840F007009C
:100A9000086000200A49C1F8A001022001F098FB7B
:100AA000012005490860022001F092FB0020044962
:100AB000C1F89C0110BD00009C812142040C014042
:100AC0000080214208B50121082000F095F94FF47B
:100AD000E070ADF8000010208DF8030003208DF8C1
:100AE000020069460448FFF737FF01200349086008
:100AF0000349C1F8A00108BD000C01409C812142BE
:100B00000080214210B500200F4908600F4800689E
:100B100020F00F000D4908600846006840F007000B
:100B2000086001200A49C1F8A001022001F050FB31
:100B3000012005490860022001F04AFB0020044919
:100B4000C1F89C0110BD00009C812142040C0140B1
:100B50000080214270B5054600241748006820F047
:100B60000F00154908600846006840F0040008605E
:100B7000002616E0002011490860022001F028FB41
:100B800001200F49C1F89C016006040E0B487C3817
:100B9000006808B1601CC4B2012001F019FB701C90
:100BA000C6B2082EE6DB15B9FFF7ACFF01E0FFF790
:100BB00061FF204670BD0000040C01409C81214271
:100BC0000080214270B504461548006820F00F00EF
:100BD000134908600846006840F0070008600020DC
:100BE00010490860002517E0E0090E49091D08605A
:100BF0006006040E022001F0EBFA01200A49C1F858
:100C00009C01022001F0E4FA00200649086002205D
:100C100001F0DEFA681CC5B2082DE5DB70BD0000EE
:100C2000040C01409C8121420080214210B50F48F4
:100C3000006820F00F000D4908600846006840F089
:100C40000700086001200A4908600A49C1F89C01B0
:100C5000042001F0BDFA002005490860042001F0DD
:100C6000B7FA00200349C1F89C0110BD040C0140F3
:100C7000A08121420080214210B50F48006820F079
:100C80000F000D4908600846006840F00700086042
:100C900000200A4908600A49C1F8A001042001F0B7
:100CA00097FA0120054908600549C1F8A001042010
:100CB00001F08EFA10BD0000040C01409C8121421D
:100CC0000080214210B500241448006820F00F0075
:100CD000124908600846006840F0040008600120DE
:100CE0000F49086001F074FA01200E49C1F89C0117
:100CF00001F06EFA07E0601CC4B2FA2C03DDFFF7C6
:100D0000BBFF012010BD0648803800680028F2D1E2
:100D10000349091F086000BFF4E70000040C01400C
:100D2000A08121420080214200BFFEE77047000001
:100D300070B5002100230F22C47804B3154C246839
:100D400004F4E064C4F5E064210AC1F10403CA407C
:100D5000447804FA03F184781440214309010E4CCD
:100D60000678A155047804F01F050124AC400578ED
:100D70006D11AD0005F1E025C5F8004109E00478EA
:100D800004F01F050124AC40044D0678761145F8A7
:100D9000264070BD0CED00E000E400E080E100E0E2
:100DA00002490143024A1160704700000000FA0541
:100DB0000CED00E07047000029B1064AD2690243F9
:100DC000044BDA6104E0034AD2698243014BDA61E1
:100DD000704700000010024029B1064A1269024320
:100DE000044B1A6104E0034A12698243014B1A6101
:100DF000704700000010024029B1064A9269024380
:100E0000044B9A6104E0034A92698243014B9A6160
:100E1000704700000010024029B1064AD268024320
:100E2000044BDA6004E0034AD2688243014BDA6083
:100E3000704700000010024030B50021002200245D
:100E400000232D4D6D6805F00C0121B1042905D05A
:100E5000082923D105E0294D056022E0274D0560D2
:100E60001FE0254D6D6805F47012234D6D6805F483
:100E70008034022505EB92421CB9214D5543056093
:100E80000BE01D4D6D6805F400351DB11C4D55433B
:100E9000056002E0194D5543056002E0174D0560FD
:100EA00000BF00BF144D6D6805F0F0010909154D34
:100EB0006B5C0568DD4045600F4D6D6805F4E061D1
:100EC000090A104D6B5C4568DD4085600A4D6D6810
:100ED00005F46051C90A0B4D6B5C4568DD40C56087
:100EE000054D6D6805F44041890B074D6B5CC56885
:100EF000B5FBF3F5056130BD0010024000127A0029
:100F000000093D0000000020100000207047000094
:100F100070B505460E4614211648FFF73EF901F05C
:100F2000E9F80446012C04D13146284602F044F881
:100F30000446012C13D110A10E4800F069FC0D48A5
:100F400000F018F9322001F01DF910A000F012F99C
:100F5000124800F00FF90CA000F00CF909E021464E
:100F60000FA000F045FC9623032212A112A000F06E
:100F700033F970BD80010020B3C9B9A6B7A2CBCDAB
:100F8000B5BD7365727665720D0A0000CAD5B5BD30
:100F9000BBD8B8B4A3BA0D0A000000001C010020A1
:100FA0006572726F725F636F64653A2025640D0A23
:100FB000000000004F4B000041542B434950434C6C
:100FC0004F53450010B500F001F810BD0CB50020DE
:100FD000019000903348006840F480303149086047
:100FE00000BF3048006800F4003000900198401CB9
:100FF0000190009818B90198B0F5A06FF1D1294877
:10100000006800F4003010B10120009001E00020E1
:1010100000900098012843D12348006840F0100058
:10102000214908600846006820F00300086008466F
:10103000006840F0020008601A484068194948609A
:101040000846406848600846406840F48060486050
:101050000846406820F47C1048600846406840F428
:10106000E81048600846006840F08070086000BFE3
:101070000C48006800F000700028F9D0094840686A
:1010800020F00300074948600846406840F002002D
:10109000486000BF0348406800F00C000828F9D100
:1010A0000CBD00000010024000200240042808D1BE
:1010B0004FF0E021096941F004014FF0E022116195
:1010C00007E04FF0E021096921F004014FF0E02230
:1010D000116170477047000010B504466FF00400BE
:1010E000FFF7E4FFE11704EB5171C1F3C701074AB1
:1010F00011701046007800EB4001C1EBC0104FF6B4
:10110000FF7101EAC0000249088010BD18000020EC
:101110001A00002010B51348006840F00100114982
:10112000086008464068104908400E494860084673
:1011300000680E4908400B4908600846006820F422
:10114000802008600846406820F4FE0048604FF4A4
:101150001F008860FFF736FF4FF000600449086009
:1011600010BD0000001002400000FFF8FFFFF6FE77
:1011700008ED00E010B504460BE000BF4021074831
:1011800000F012FA0028F9D014F8011B034800F00F
:10119000D8FA20780028F0D110BD000000380140B6
:1011A00010B5044621460AA000F022FB0BE000BF68
:1011B0004021084800F0F8F90028F9D014F8011B84
:1011C000044800F0BEFA20780028F0D110BD0000DD
:1011D00025730000004400402DE9F04180460C4694
:1011E00015461E4600270EE0404600F02BF8B0B230
:1011F00000F0C8FF2046FFF7A1FB10B10120BDE8B9
:10120000F081781CC7B2AF42EEDB0020F7E72DE992
:10121000F04180460C4615461E4600270EE040462B
:1012200000F01EF8B0B200F0ADFF2046FFF786FBDD
:1012300010B10120BDE8F081781CC7B2AF42EEDBEF
:101240000020F7E710B50446FFF764FB2046FFF7E0
:10125000A7FF02A0FFF7A4FF10BD00000D0A0000C9
:1012600010B50446FFF756FB2046FFF799FF10BD67
:1012700010B540F22551204800F0A3F9002839D0DC
:101280001D4800F059FAC4B2242C02D100201B4999
:1012900008801A4801880088401C184A10801848A5
:1012A00044540078242825D1154800794D2821D1AF
:1012B0001348407943281DD10A2C14D150211148DC
:1012C000FEF76BFF0D4802880D490E48FEF74CFFF4
:1012D00001200C4981F85000002008490880C821ED
:1012E0000748FEF75AFF05480088C82802DBC820D7
:1012F0000249088010BD000000380140160000209F
:10130000540000206429002010B586B00446012155
:1013100044F20400FFF770FD254800F0F7F84FF4A1
:101320000070ADF8140018208DF8170003208DF818
:10133000160005A91F48FFF70FFB4FF48060ADF8BA
:10134000140004208DF8170005A91A48FFF704FBC4
:1013500001940020ADF80800ADF80A00ADF80C00CB
:10136000ADF810000C20ADF80E0001A9104800F0F7
:1013700077F925208DF8000002208DF8010001206A
:101380008DF802008DF803006846FFF7D1FC0122BA
:1013900040F22551064800F03EF90121044800F0D2
:1013A000A8F84021024800F09BF806B010BD0000EC
:1013B000003801400008014010B5002440F22551DA
:1013C0000D4800F0FEF8B0B10B4800F0B5F9C4B21A
:1013D00021460AA000F00CFA09480A490968445459
:1013E00008480068401C07490860084600686428EF
:1013F00001D30020086010BD0044004025630000B8
:101400001C0100201C00002010B586B004460121FC
:101410004804FFF7D1FC01210420FFF7EDFC25482B
:1014200000F074F80420ADF8140018208DF81700AF
:1014300003208DF8160005A91F48FFF78DFA082034
:10144000ADF8140004208DF8170005A91A48FFF71D
:1014500083FA01940020ADF80800ADF80A00ADF859
:101460000C00ADF810000C20ADF80E0001A91148D9
:1014700000F0F6F826208DF8000001208DF801001C
:1014800000208DF8020001208DF803006846FFF768
:101490004FFC012240F22551064800F0BCF8012122
:1014A000044800F026F84021024800F019F806B080
:1014B00010BD0000004400400008014010B540F29B
:1014C0002551064800F07DF838B1044800F034F9A1
:1014D000C4B22146014800F034F910BD0048004074
:1014E00001F40072B2F5007F00D100BFCA43028050
:1014F000704721B1828942F40052828104E08289DE
:101500004DF6FF731A4082817047000010B5044603
:101510002048844209D101218803FFF77DFC002186
:101520004FF48040FFF778FC32E01B48844209D139
:1015300001214804FFF750FC00214FF40030FFF771
:101540004BFC25E01548844209D101218804FFF7AE
:1015500043FC00214FF48020FFF73EFC18E01048C8
:10156000844209D10121C804FFF736FC00214FF461
:101570000020FFF731FC0BE00A48844208D101212A
:101580000805FFF729FC00214FF48010FFF724FC29
:1015900010BD0000003801400044004000480040F9
:1015A000004C00400050004002460020B1F5007F92
:1015B00000D100BF13880B400BB1012000E00020D8
:1015C000704770B50246002400230025002040F635
:1015D0006A16B14200D100BFC1F3421501F01F03EA
:1015E000012606FA03F3012D02D19689334006E065
:1015F000022D02D1168A334001E0968A33400C1244
:10160000012606FA04F41688344013B10CB1012007
:1016100000E0002070BDF0B5034600240026002540
:10162000002040F66A17B94200D100BF1846C1F346
:10163000421401F01F06012707FA06F5012C01D11B
:101640000C3004E0022C01D1103000E014301AB14B
:1016500007682F43076002E00768AF430760F0BDEB
:101660002DE9F04786B005460E460024A24600BF8D
:10167000A1460027B08900B100BF2F462C8A4CF646
:10168000FF700440F08804432C82AC894EF6F310BE
:101690000440B08831890843718908430443AC8110
:1016A000AC8A4FF6FF400440B0890443AC8201A8E5
:1016B000FFF7C2FB1F48874202D1DDF810A001E00E
:1016C000DDF80CA0A88900F4004040B10AEBCA0084
:1016D00000EB0A1031684900B0FBF1F807E00AEBB3
:1016E000CA0000EB0A1031688900B0FBF1F86420F1
:1016F000B8FBF0F004012009642101FB1089A889DE
:1017000000F4004040B1322000EBC900B0FBF1F022
:1017100000F00700044308E0322000EB09106421C8
:10172000B0FBF1F000F00F0004432C8106B0BDE8DF
:10173000F08700000038014001468888C0F30800A7
:101740007047C1F308028280704700BFFEE70000C7
:101750002DE9F04105460027FFF7DCF83CE020A02A
:10176000FFF770FD642000F00DFD00242CE01F4801
:10177000005D2B2826D11D49601C085C432821D11F
:10178000A01C085C52281DD1E01C085C452819D11A
:10179000201D085C472815D1601D085C3A2811D12E
:1017A000E01D085C31280DD104F10900085C3128E6
:1017B00004D004F10900085C352803D10127012079
:1017C000BDE8F081601CC4B2642CD0DB701CC6B2D2
:1017D000AE4201DD0020F3E7002FC0D00020EFE78C
:1017E00041542B435245473F000000001C0100209C
:1017F0000FB4054B10B503A9044A029800F0DEF8B7
:1018000010BC5DF814FB00001D22000850000020F1
:101810000FB4084B10B504A902AA039800F0CEF843
:10182000044602A9002000F060FC204610BC5DF8D0
:1018300014FB0000EB20000802E008C8121F08C1DA
:10184000002AFAD170477047002001E001C1121F41
:10185000002AFBD1704700002DE9FF5FDDE902207F
:10186000010DDDF838B0024318D044F61050A1F253
:10187000FF3141430D140F98012820D0A5EB0B0038
:10188000401C5FEA000A4FF00004474EDFF81C914D
:10189000A046504616D5CAF1000728E00F9801244B
:1018A00043A2012808D0002100980F9BC0E9002125
:1018B000C0E90243BDE8FF9F6FEA0B01F4E7CBF1FB
:1018C0000000DEE7074612E0F80707D0224633465D
:1018D00040464946FEF757FF804689462246334632
:1018E00010461946FEF74FFF04460E467F10002FA4
:1018F000EAD1DDE90201BAF1000F42464B4602DAB5
:10190000FEF741FF01E0FEF7B7FD04460E46002258
:10191000284BFEF7C3FF03D84FF0FF30014607E026
:101920000022254B20463146FEF7FFFCFEF79DFFC7
:10193000102409E0002C0ADB0A220023FEF73DFEFA
:10194000019B30321A55641E50EA0102F2D1641C28
:10195000019AC4F1110314440F9A012A03D0012201
:1019600008430DD10AE0084304D000204FF0110BCA
:101970000F9080E7A3EB0B056D1E0DE05B4504DDCA
:101980004FF0000205F1010504E003DA4FF0000218
:10199000A5F10105002AECD000980F99C0E90231A9
:1019A000C0E9004586E70000000024400000F03F49
:1019B000300000000000F0430000E03F2DE9FF4F41
:1019C00095B09B468946064600250FE2252877D12B
:1019D00000242746F84A0121059400E0044316F844
:1019E000013F203B01FA03F01042F7D130782A285A
:1019F00011D06FF02F033078A0F13002092A16D8E9
:101A0000059A44F0020402EB820203EB4202104406
:101A1000761C0590EFE759F8042B0592002A03DAAB
:101A2000504244F40054059044F00204761C30788F
:101A30002E2816D116F8010F44F004042A280DD0E0
:101A40006FF02F023078A0F13003092B09D807EB93
:101A5000870302EB4303C718761CF3E759F8047BAE
:101A6000761C30786C280FD006DC4C2817D06828FC
:101A70000DD06A2814D104E0742810D07A280FD130
:101A80000DE044F400140AE044F4801401E044F44E
:101A900040147278824202D104F58014761C761CC0
:101AA000307866280BD013DC582877D009DC002862
:101AB00075D04528F6D04628F4D047281AD19DE1A4
:101AC00018E0632835D0642879D0652812D195E1D3
:101AD000702873D008DC6728F1D069286FD06E2891
:101AE0000DD06F2806D1B5E073282CD0752875D09D
:101AF000782874D05A46179990476D1C75E1C4F345
:101B00000250022809D003280DD0D9F8001004286B
:101B10000DD00D6009F1040967E1D9F80010EA174A
:101B2000C1E90052F6E7D9F800100D80F2E70D7018
:101B3000F0E719F8041B8DF8001000208DF8010063
:101B4000EA46012003E059F804AB4FF0FF3061078B
:101B50004FF0000102D40DE008F101018846B942BE
:101B60000FDA8045F8DB1AF808100029F4D108E0F4
:101B700008F1010188468142FADB1AF808100029B1
:101B8000F6D105985B46A0EB080721463846179A20
:101B900000F094FA284400EB080507E04DE029E145
:101BA0000DE01AF8010B5A4617999047B8F1010851
:101BB000F7D25B4621463846179A13E142E00A22E3
:101BC0000092C4F302524FF0000A022A08D059F8DA
:101BD00004CB032A4FEAEC710AD00DE029E02AE099
:101BE00009F1070121F00702F2E802C1914609E07C
:101BF0000FFA8CFC4FEAEC71042A03D14FFA8CFCEB
:101C00004FEAEC71002907DA0A460021DCF1000CEA
:101C100061EB02012D2202E0220504D52B228DF872
:101C20000420012203E0E20701D02022F7E79046DA
:101C300059E00A2102E010220DE010214FF0000AC5
:101C400000910BE010224FF0000A44F00404082732
:101C5000009203E008224FF0000A0092C4F30252FF
:101C6000022A05D059F804CB0021032A08D009E044
:101C700009F1070121F00702F2E802C1914605E0EF
:101C80001FFA8CFC042A01D10CF0FF0C4FF0000865
:101C9000220728D5702806D0009B83F0100353EA52
:101CA0000A0305D00EE040228DF80420012208E04E
:101CB0005CEA010206D030228DF804208DF8050080
:101CC00002229046009B83F0080353EA0A030AD1DC
:101CD0005CEA010201D1620705D530228DF80420AB
:101CE0004FF001087F1E582804D034A003900EA89E
:101CF00002900DE036A0F9E753466046009AFEF7E1
:101D00005CFC84460398825C0298401E029002703C
:101D10005CEA0100F0D1029806A9081A00F1200A35
:101D2000600702D524F4803400E00127574502DD26
:101D3000A7EB0A0000E0002000EB0A0100900598E4
:101D40004144401A0590E00306D45B462146179AA9
:101D5000059800F0B3F90544002706E001A85A46AB
:101D6000C05D179990476D1C7F1C4745F6DBE0036B
:101D70000CD55B462146179A059800F09FF905445B
:101D800004E030205A46179990476D1C0099481E70
:101D900000900029F5DC08E0029802995A46007884
:101DA000491C0291179990476D1CBAF10001AAF1E4
:101DB000010AF1DC65E1000009280100303132330D
:101DC0003435363738396162636465660000000077
:101DD0003031323334353637383941424344454661
:101DE0000000000000F058F90544761C3078002807
:101DF0007FF4ECAD19B02846BDE8F08F620700D43F
:101E0000062709F1070222F0070CFCE80223E1464D
:101E100003F000485FEA080C02D00FF2702C0DE0CE
:101E20005FEA045C02D50FF2682C07E05FEAC47C2D
:101E300002D00FF2602C01E0AFF2700C4FF0FF38CF
:101E400023F00043CDF850C065280CD006DC4528AF
:101E500009D046281DD047283DD13DE0662818D03E
:101E600067287ED138E00021112F01DB112000E02E
:101E7000781CCDE9000106A90EA8FFF7EDFCDDE90D
:101E80000F010E9A03910021009207F1010A0491BB
:101E90004DE04FF000400097CDE9011006A90EA8D3
:101EA000FFF7DAFCDDE90F0203920E9B1199002285
:101EB000DDF80CA00093049211B9791C00EB010A23
:101EC000B7EB0A0004D4C0F1FF3007F1010A049017
:101ED000AAEB0700019044E0012F00DA012700215E
:101EE000112F01DD112000E03846CDE9000106A9DF
:101EF0000EA8FFF7B1FCDDE90F010E9A0391002156
:101F000004910092BA4621070CD40399514500DA96
:101F10008A46BAF1010F05DD009AAAF10101515C70
:101F2000302908D0B84202DA10F1040F06DA012194
:101F3000CDE9011015E0AAF10101E9E7002805DC6F
:101F4000049901440491AAEB000102E0411C5145AF
:101F500000DD8A460499401A401C01904FF0004071
:101F60000290200704D40198504501DBCDF804808D
:101F700000208DF84F0002980DF14F07B0F1004F8F
:101F800025D02B200E9002984FF0020800280CDA82
:101F9000404202902D200E9007E00A210298FEF7A1
:101FA000F6FA3031029007F8011DB8F10001A8F1EE
:101FB0000108F2DC02980028EFD1791E0E98087013
:101FC000307800F0200040F0450007F8020D12A81C
:101FD000C01B00F107081498007800B1012000EB45
:101FE0000A01019801EBE07105984144401A401E36
:101FF0000590E00306D45B462146179A059800F049
:102000005DF805441498007818B15A46179990471E
:102010006D1CE00324D55B462146179A059800F015
:102020004DF805441CE00498002807DBDDE90301B6
:10203000884203DD0098405C179901E01799302031
:102040005A469047049805F10105401C04900198F8
:10205000401E019004D12E205A46179990476D1CBE
:10206000BAF10001AAF1010ADDDC05E017F8010B65
:102070005A46179990476D1CB8F10001A8F1010864
:10208000F4DC5B462146179A0598ABE62D0000006C
:102090002B000000200000002DE9F041044600253F
:1020A0001E461746880404D405E039462020B04770
:1020B0006D1C641EF9D52846BDE8F0812DE9F0417C
:1020C000044600251E469046C80301D5302700E08F
:1020D0002027880404D505E041463846B0476D1CEA
:1020E000641EF9D52846BDE8F0810A68531C0B60D0
:1020F0001070704738B51B208DF8000000208DF857
:1021000001003223062216A116A0FFF765F8044647
:102110002CB96846FFF744F84FF0FF3038BD322342
:10212000042211A112A0FFF757F8044614B96FF06A
:102130000100F3E70320FFF70BFB044614B96FF02F
:102140000200EBE73223022205A10CA0FFF744F8BE
:10215000044614B96FF03200E0E70120DEE700002A
:102160004F4B0000415400005245414459000000CB
:1021700041542B4350494E3F00000000415445302C
:10218000000000000146114A12884A434FF0E02344
:102190005A6100229A611A46126942F001021A61DC
:1021A00000BF4FF0E022106900F001021AB100F404
:1021B0008032002AF5D04FF0E022126922F00102AD
:1021C0004FF0E0231A6100229A6170471A00002044
:1021D0000146114A12784A434FF0E0235A61002227
:1021E0009A611A46126942F001021A6100BF4FF06B
:1021F000E022106900F001021AB100F48032002AD6
:10220000F5D04FF0E022126922F001024FF0E023F6
:102210001A6100229A6170471800002070B50446C8
:102220000D46E1B20548FFF78CFA00BF8021034854
:10223000FFF7BAF90028F9D0204670BD00380140F8
:1022400070B502460A24002300214CE052F8210018
:10225000002840DD52F82100C8283CDAD9B152F8F4
:102260002150481E52F82000281A1E2813DD481E4F
:1022700052F8200000280EDD52F821604D1E52F861
:102280002550701B00EBD0756E104D1E52F8255076
:10229000354442F82150D1B1481E52F8200052F87E
:1022A0002150401B1E2812DD481E52F82000C8286D
:1022B0000DDA4D1E52F8255052F82160A81B00EB94
:1022C000D07552F8216006EB650542F8215052F8AE
:1022D0002100034405E0641E062C02DC0A24284881
:1022E00070BD481CC1B20A29B0DB93FBF4F325484A
:1022F000254D95F9005040F82530234890F900000D
:10230000012809DA20480078401C40B21E4D287090
:102310001C4800681B4D68601B480078012828D1C4
:1023200018480068164DA84223D016484068154D3D
:102330002D68401B1E280ADD124D6D68114E36684F
:10234000A81B00EBD0750F4E366806EB65030D48F1
:1023500000680C4D6D68401B1E280ADD094D2D6874
:10236000084E7668A81B00EBD075064E766806EB23
:102370006503642B00DD143BA3F10F00B0E7000000
:1023800019FCFFFF34000020300000202DE9F0414F
:1023900005460A260027002453E055F824005A2851
:1023A00046DB55F82400642842DCDCB1601E55F899
:1023B00020005A2816DB55F82410601E55F820001E
:1023C000081A05280EDD55F82420611E55F8211045
:1023D000501A00EBD0714A10611E55F821101144BB
:1023E00045F82410D4B1601E55F820005A2815DB9A
:1023F000601E55F8200055F82410401A05280DDD00
:10240000611E55F8211055F82420881A00EBD07170
:1024100055F8242002EB610145F8241055F82400FA
:10242000FEF799F880463946FDF7E9FE074606E0D3
:10243000761E062E03DA0A260848BDE8F081601CE5
:10244000C4B20A2CA9DB3046FEF785F88046414627
:102450003846FDF72CFF07463846EEE700C079C442
:10246000B8B04820FEF738FE4FF4A060FEF798FCA5
:102470004FF4E130FEF748FF4FF4E130FEF7C4FFC0
:10248000002404E06420FFF77DFE601CC4B2142C1D
:10249000F8DB1EE000F010F90E48FFF7D1FE05460C
:1024A0000D48FFF773FF80464046FEF75DF8029542
:1024B000CDE90401094803C8CDE90001084809A194
:1024C0000CC806A8FFF7A4F906A90DA0FEF720FD89
:1024D00000BFDFE714290020C428002040000020AE
:1024E000480000206C6F3A256C662C6C613A256CB4
:1024F000662C68723A25642C73703A256C6600006D
:1025000033392E3130382E3131302E3132312C31B9
:10251000303030310000000070B50446FEF786FB15
:10252000AE20FEF74FFBFEF7CDFB00B119E02046D1
:10253000FEF748FBFEF7C6FB00B112E0FEF776FBA4
:10254000AF20FEF73FFBFEF7BDFB00B109E0002026
:10255000FEF700FB0546FEF7D5FAFEF78DFB284691
:1025600070BDFEF789FB0020FAE770B505460C4602
:10257000FEF75CFBAE20FEF725FBFEF7A3FB00B1E8
:1025800011E02846FEF71EFBFEF79CFB00B10AE0B7
:102590002046FEF717FBFEF795FB00B103E0FEF7C0
:1025A0006BFB012070BDFEF767FB0020FAE770B5FA
:1025B00005460C460020FFF7AFFF0120FFF7ACFFF8
:1025C000FEF734FBAE20FEF7FDFAFEF77BFB00B111
:1025D0002AE02846FEF7F6FAFEF774FB00B123E086
:1025E000FEF724FBAF20FEF7EDFAFEF76BFB00B120
:1025F0001AE00120FEF7AEFA20700120FEF7AAFAD9
:1026000060700120FEF7A6FAA0700120FEF7A2FA82
:10261000E0700120FEF79EFA20710020FEF79AFA82
:102620006071FEF729FB00BFFEF726FB70BD0000BE
:1026300008B501210820FEF7DFFB4FF48040ADF81C
:10264000000048208DF8030069461A48FEF784F917
:10265000FEF738FA00F05AF9C0210220FFF785FF93
:1026600000210320FFF781FF00210420FFF77DFFF9
:1026700000210520FFF779FF00210620FFF775FFF5
:102680000F210820FFF771FF03210920FFF76DFFDD
:1026900047210A20FFF769FF3F210C20FFF765FF64
:1026A0003F210D20FFF761FF7F211020FFF75DFF25
:1026B00008BD0000000C0140F0B585B06E48007800
:1026C000002844D000206C490870FFF7B1FF6BA0D0
:1026D000FFF78EF84FF4FA706E490860002425E089
:1026E00000BF6D4800680128FBD003A90720FFF751
:1026F0005EFF9DF80C008007800B9DF80D1040EAEE
:1027000001209DF80E100843644941F824009DF80B
:102710000F008007800B9DF8101040EA01209DF803
:10272000111008435E4941F82400641C59480068B0
:102730008442D5DB5B485C495C4A5D4BCDE90021B6
:102740000290564A53480168554800F00BF975E06D
:10275000642410E0514850F82410A4F164004F4A5A
:1027600042F820104E4850F82410A4F164004C4A5E
:1027700042F82010641CB4F5FA7FEBDB4FF4C87408
:1027800025E000BF444800680128FBD003A90720CA
:10279000FFF70DFF9DF80C008007800B9DF80D10D2
:1027A00040EA01209DF80E1008433C4941F82400FE
:1027B0009DF80F008007800B9DF8101040EA012063
:1027C0009DF811100843364941F82400641CB4F503
:1027D000FA7FD6DB3448006864280DDD3248006893
:1027E000C82809DA3048006832383249324A92F94A
:1027F000002041F8220007E02B4800682D492E4AAE
:1028000092F9002041F82200294801682A4890F9ED
:1028100000200078401C40B2274B1870274840F831
:10282000221020482049214A214BCDE90021029065
:102830001A4A184801681A4800F094F81E480078AF
:102840000A2885D100201C4908701A48FFF7F8FCB7
:10285000054629461AA0FEF7CBFF1848FFF796FD5C
:102860000746FDF781FE05462A460B461DA0FEF7EA
:10287000BFFF05B0F0BD00002E0000206D61783371
:102880003031303220697320696E69746C697A6501
:10289000642100002000002024812142F420002037
:1028A000241900202D000020280000202C000020EA
:1028B00024000020142900202F000020C42800201C
:1028C0000D0A0D0AC4FAD5E2B6CECAB1BCE4B5C44D
:1028D000C6BDBEF9D0C4C2CACEAA25640D0A0D0A6F
:1028E000000000000D0A0D0AC4FAD5E2B6CECAB146
:1028F000BCE4B5C4C6BDBEF9D1AAD1F5C5A8B6C859
:10290000CEAA252E32660D0A0D0A000010B5402110
:102910000920FFF72AFE40210920FFF726FE10BDFF
:102920002DE9F84705460C4616461F46DDE90A9A8A
:10293000DDF824803B46324621462846CDF800800B
:1029400000F088FA4B4632462146284600F0BFFA8E
:102950002068504501DA206800E050462060BDE85C
:10296000F88700002DE9FF4FC5B08846002044904D
:10297000002406E0459850F82410449808444490F8
:10298000641C4445F6DB4498B0FBF8F04490002406
:1029900008E0459850F824104498081AFE4941F878
:1029A0002400641C4445F4DB002417E0FA4850F886
:1029B00024100246601C52F820000144A01C52F86A
:1029C00020000144E01C52F820000F183846F91787
:1029D00007EB9171891042F82410641CB4F5F87F5C
:1029E000E4DB00240AE0EC49601C51F8200051F8B7
:1029F0002410401AE94941F82400641CB4F5F77F1B
:102A0000F1DD00240EE0E54951F824200B46611C5D
:102A100053F82110501800EBD07149101A4642F8B3
:102A20002410641CB4F5F77FEDDB00251BE00020CB
:102A300042902C460BE0D94850F82410601BD84A2D
:102A400032F81020429801FB12004290641C681D6D
:102A50008442F0DB40F27A41429890FBF1F0CF499A
:102A600041F825006D1CB5F5F47FE0DD00204190B4
:102A7000002410E0C94850F82400002803DDC748AE
:102A800050F8240003E0C54850F824004042419922
:102A900008444190641CB4F5F77FEBDD40F2EF1180
:102AA000419890FBF1F0419005210822419840F2B5
:102AB000EF13CDE901210090B84A40A912A8FFF711
:102AC0002FFF002011904098022821DB01240BE009
:102AD00012A850F82410601E12AA52F82000091AF9
:102AE000119808441190641C40988442F0DB40988F
:102AF000401E119991FBF0F0119041F27071119804
:102B000091FBF0F15398016001215498017005E0A8
:102B1000A44953980160002154980170002407E0F3
:102B200012A850F82400801C30A941F82400641C2D
:102B300040988442F4DB00240CE0459850F82400CF
:102B4000954941F82400479850F82400964941F8E7
:102B50002400641C4445F0DB4FF0000A00242CE004
:102B60000120439030A850F824904FF080703F909F
:102B700009F10500B0F5F77F1EDC0A3800281BDDDF
:102B8000054611E0844850F825103F9881420ADA42
:102B9000439808B1002043907F4850F825003F90AB
:102BA00021A840F824506D1C09F105008542E9DB9D
:102BB000439808B90AF1010A641C40988442CFDBAB
:102BC000BAF1020F08DA774948980160002152985B
:102BD000017049B0BDE8F08F00242EE06E4951F835
:102BE00024200B46611C53F821100A44A11C53F801
:102BF00021100A44E11C53F821105018C11700EBB2
:102C0000917189101A4642F82410674951F824201E
:102C10000B46611C53F821100A44A11C53F82110E3
:102C20000A44E11C53F821105018C11700EB9171B0
:102C300089101A4642F82410641CB4F5F87FCDDBE5
:102C4000002004900026002404E0002005A941F89B
:102C50002400641C052CF8DB00240DE021A850F8AA
:102C60002400B0F5FA7F06DD4E4948980160002146
:102C700052980170ADE7641C5445EFDB0024AEE0D0
:102C80004FF07F400D900C9021A9601C51F820005E
:102C900051F82410401A0A287CDD21A850F824504D
:102CA00016E03D4850F825100C98814204DD3A4862
:102CB00050F825000C900A953B4850F825100D98C7
:102CC000814204DD384850F825000D900B956D1CAD
:102CD00021A9601C51F82000A842E2DC601C51F8D8
:102CE0002000314951F8200021A951F824102E4A22
:102CF00052F82110401A21A951F824200B99891A61
:102D00004843109021A9601C51F8200051F824106C
:102D1000411A109890FBF1F021A951F82410224A91
:102D200052F821100844109011460B9851F82010C9
:102D30001098081A109021A9601C51F8200016491B
:102D400051F8200021A951F82410134A52F82110FB
:102D5000401A21A951F824200A99891A48430F9052
:102D600021A9601C51F8200051F82410411A0F9835
:102D700090FBF1F021A951F82410074A52F82110D4
:102D800008440F9011460B9851F820100F98081A1C
:102D90000F900BE022E0000084090020C401002015
:102DA0001431000819FCFFFF541100200C991098F1
:102DB0004843C01103900D990F984843C711002F45
:102DC0000CDD052E0ADA039840B1642103984843CC
:102DD00090FBF7F005A941F82600761C641CAAF1C7
:102DE0000100A0423FF74CAF314605A800F0A8F81B
:102DF000304606EBD0714FEA610BBBF1010F0CDDE1
:102E0000ABF1010105AA52F8211052F82B208818C5
:102E100000EBD0714910049103E005A850F82B0095
:102E20000490049802280DDD0498B8280ADA0849AD
:102E30000498085C0E9048990E98086001215298F9
:102E4000017002E000215298017000BFC1E600004D
:102E500052310008F0B505461C46059E01200027AA
:102E60000F6030E052F82070B7422BDD52F820C0DE
:102E7000471E52F82770BC4524DD012300E05B1C8F
:102E8000C718A74207DA52F8207000EB030C52F87B
:102E90002CC06745F3D052F8207000EB030C52F8B9
:102EA0002CC067450CDD0F680F2F09DAD1F800C080
:102EB0000CF101070F6045F82C005F1C384402E05C
:102EC000184400E0401C671E8742CBDCF0BD2DE9B2
:102ED000F04F05460C4692469846294650462268D1
:102EE00000F049F84FF0FF3621E0D4F800B0701C34
:102EF0002060771C18E055F82710701C10B94FF0AF
:102F0000FF3001E055F82600A1EB0009C14503DCC4
:102F1000C8F10000814506DA55F827102268501CD8
:102F2000206045F822107F1C5F45E4DB761C20689A
:102F3000B042DADC2846216800F002F8BDE8F08FE4
:102F400030B50C46012213E050F82230114605E05E
:102F50004D1E50F8255040F82150491E002904DD2F
:102F60004D1E50F825509D42F2DC40F82130521C95
:102F7000A242E9DB30BDF0B503461546012217E059
:102F800051F82240104605E0461E51F8266041F8EF
:102F90002060401E002808DD53F82470461E51F8BA
:102FA000266053F82660B742EEDC41F82040521C00
:102FB000AA42E5DBF0BD0000F8B505460E461A2032
:102FC0008DF8000000208DF801006423032237A152
:102FD00039A0FEF701F90446012C1DD14623032236
:102FE00039A13AA0FEF7F8F8044614B96FF00D00C5
:102FF000F8BD3046FEF7D4F80A20FFF7C3F8FA23ED
:10300000032235A16846FEF702F9044614B96FF0B1
:103010000800EDE70120EBE74FF4AF73052225A18F
:103020002FA0FEF7D9F8044614B96FF00A00DFE7C5
:10303000642303221FA12DA0FEF7CEF8044614B985
:103040006FF03100D4E72D212C48FDF7A6F82CA114
:103050002A48FDF7CBF829462848FDF7A9F8FA23B6
:10306000062212A12548FEF7B7F8044614B96FF0FE
:103070000C00BDE74623032213A114A0FEF7ACF811
:10308000044614B96FF00D00B2E73046FEF788F839
:10309000FA23022210A16846FEF7B9F8044614B9D3
:1030A0006FF00800A4E70120A2E70000434F4E4E56
:1030B000454354204F4B000041542B434950535437
:1030C00041545553000000003E00000041542B4382
:1030D000495053454E44000053454E44204F4B0049
:1030E00041542B43474154543D31000041542B433C
:1030F000474143543D312C31000000009401002031
:1031000041542B43495053544152543D5443502C45
:103110000000000029001401000214012900000031
:10312000000000000000000000000000000000009F
:10313000000000000000000000000000000000008F
:10314000000000000000000000000000000000007F
:1031500000005F5F5F606060616161616162626227
:10316000626263636363636363636464646464642B
:103170006464646464646464646464646464636311
:10318000636363636363626262626262616161611D
:10319000606060605F5F5F5E5E5E5D5D5D5C5C5C4D
:1031A0005B5B5A5A595959585857575656555554A2
:1031B00054535252515150504F4E4E4D4C4C4B4A1D
:1031C0004A494848474645454443424241403F3EBC
:1031D0003E3D3C3B3A39383837363534333231307E
:1031E0002F2E2D2C2B2A2928272625242322211F68
:1031F0001E1D1C1B1A19171615141311100F0E0C77
:103200000B0A090706050302010000002C32000822
:103210000000002054000000381800088032000828
:1032200054000020642D0000481800080000000031
:103230000102030401020304060708090204060848
:10324000000000000000000000000000000000007E
:10325000000000000000000000000100000000006D
:1032600046000000460000000000000000000000D2
:10327000000000000000000000000000000000004E
:0400000508000131BD
:00000001FF
