:020000040800F2
:10000000F805002045010008A30800089B08000827
:100010009F0800083D070008BF120008000000000C
:10002000000000000000000000000000810A00083D
:10003000650700080000000029090008490C0008B5
:100040005F0100085F0100085F0100085F01000810
:100050005F0100085F0100085F0100085F01000800
:100060005F0100085F0100085F0100085F010008F0
:100070005F0100085F0100085F0100085F010008E0
:100080005F0100085F0100085F0100085F010008D0
:100090005F0100085F0100085F0100085F010008C0
:1000A0005F0100085F0100085F0100085F010008B0
:1000B0005F0100085F0100085F0100085F010008A0
:1000C0005F0100085F0100085F0100085F01000890
:1000D0005F010008E50D00082D0F00083110000831
:1000E0005F0100085F0100085F0100085F01000870
:1000F0005F0100085F0100085F0100085F01000860
:100100005F0100085F0100085F0100085F0100084F
:100110005F0100085F0100085F0100085F0100083F
:100120005F0100085F0100085F0100085F0100082F
:10013000DFF80CD000F0E0FA00480047691D000825
:10014000F80500200648804706480047FEE7FEE71E
:10015000FEE7FEE7FEE7FEE7FEE7FEE7FEE7FEE777
:10016000890C00083101000840EA01039B0703D015
:1001700009E008C9121F08C0042AFAD203E011F8E6
:10018000013B00F8013B521EF9D27047D2B201E0A8
:1001900000F8012B491EFBD270470022F6E710B58C
:1001A00013460A4604461946FFF7F0FF204610BDE5
:1001B000421E12F8013F002BFBD111F8013B02F85F
:1001C000013B002BF9D1704730B505462A460B4656
:1001D00012F8010B13F8014B08B1A042F8D01CB182
:1001E000002802D06D1CF1E7284630BD034611F807
:1001F000012B00F8012B002AF9D1184670472DE990
:10020000FE4F804681EA0300C00F0C46009021F0AB
:10021000004123F00045B8EB0200A94105D2404659
:10022000214690461C460B46024623F000401043F0
:1002300047D0270DC7F30A00C3F30A510290401AB2
:10024000019040286BDAC3F3130040F4801B009840
:10025000924620B10023D2EB030A63EB0B0B01980B
:100260005946C0F14002504600F026F906460D46B8
:1002700050465946019A00F02EF910EB08006141F2
:10028000002487EA115284EAE7731A4340D0009AA7
:1002900062B3019A012A4FEA075215DC001B61EB99
:1002A00002014FF0004202EA0752CDE90042001C71
:1002B00041F5801132462B4600F02EF903B0BDE81F
:1002C000F08F40462146F9E7001B61EB0201001C5C
:1002D00041F5801300185B412018A2F5001747EB89
:1002E000030140EAD570B6196D4111E06D084FEA7F
:1002F000360645EAC0754FEA0752001B61EB020162
:10030000001C41F5801149084FEA300000195141A5
:1003100032462B4603B0BDE8F04F00F0EEB800982F
:10032000012240000023D0EB020263EBE07300984F
:1003300021464FEAE074B8EB000061EB0401E9E705
:1003400083F000435BE781F0004158E72DE9F04D71
:1003500081EA030404F0004B21F0004514464FF0FD
:10036000000A23F0004150EA050220D054EA0102BD
:100370001DD0C5F30A570246C5F31303C1F313009A
:10038000C1F30A5640F4801543F48013A7EB060826
:10039000101BD64608F2FD3873EB050002D308F1B6
:1003A000010801E092185B41B8F1000F03DA002068
:1003B0000146BDE8F08D00204FF4801106468446CA
:1003C0000EE0171B73EB050705D3121B63EB050348
:1003D00006434CEA010C49084FEA300092185B4191
:1003E00050EA0107EDD152EA030012D082EA04007C
:1003F00083EA0501084305D0101BAB4106D2012258
:10040000002306E000224FF0004302E06FF00102FB
:1004100053101AEB06004CEB085110EB0A0041EBAD
:100420000B01BDE8F04D00F068B830B50B46014651
:1004300000202022012409E021FA02F59D4205D383
:1004400003FA02F5491B04FA02F52844151EA2F12D
:100450000102F1DC30BD2DE9F05F05460020924637
:100460009B4688460646814640241BE02846414676
:100470004746224600F052F953465A46C01A914167
:1004800010D311461846224600F016F82D1A67EBD5
:1004900001084F4622460120002100F00DF817EB1D
:1004A00000094E41201EA4F10104DFDC484631461C
:1004B0002A464346BDE8F09F202A04DB203A00FA92
:1004C00002F1002070479140C2F1200320FA03F3AB
:1004D000194390407047202A06DBCB17203A41FA97
:1004E00002F043EAE07306E041FA02F3D040C2F1C1
:1004F0002002914008431946704710B5141E73F14D
:10050000000408DA401C41F1000192185B411A43D3
:1005100001D120F0010010BD2DE9F04D92469B461F
:1005200011B1B1FA81F202E0B0FA80F220329046C5
:10053000FFF7C2FF04460F4640EA0A0041EA0B01FA
:1005400053465A46084313D0114653EA010019D0C6
:10055000C8F14002504600F0E1F805460E4650460C
:1005600059464246FFF7A8FF084305D0012004E0A2
:1005700020463946BDE8F08D0020054346EAE07686
:100580002C4337430A986305E40AA0EB08000022D5
:10059000FD0A44EA47540A3002D500200146E9E743
:1005A000010510196941DDE9084500196941BDE8F7
:1005B000F04DA2E72DE9FE4F81EA030404F0004468
:1005C00021F0004100944FF0000B23F0004350EA6B
:1005D00001045ED052EA03045BD0C3F30A54C1F3B2
:1005E0000A552C44A4F2F3340194A0FB0254C1F345
:1005F000130141F48011C3F3130343F4801301FB8F
:10060000024400FB034E840A970A44EA815447EAF5
:100610008357A4FB076802958D0A05FB07854FEAFF
:10062000932C04FB0C542705029D4FEA065847EA19
:100630001637B5EB08056EEB070C870E920E47EAEE
:10064000811742EA8312A7FB0201B6EB0B0164EBB0
:1006500000042B0D43EA0C335E1844EB1C50DA46C1
:100660005146E7FB0201C5F313044FEA0B3343EA9B
:1006700014534FEA0432019C43EA0603A4F10C042C
:100680000294009CCDE900B4FFF746FF03B0BDE83B
:10069000F08F00200146F9E7C1F30A52C1F31301BC
:1006A00040F2FF3341F480119A4202DA0020014601
:1006B000704740F233439A42A2F2334202DC524284
:1006C00000F02CB8FFF7F8BE30B5041E71F100043D
:1006D00004DB4FF00044404264EB0101141E73F14F
:1006E000000405DB1C464FF00043524263EB040359
:1006F000994208BF904230BD064C074D06E0E068C5
:1007000040F0010394E8070098471034AC42F6D358
:10071000FFF712FD841F0008A41F0008202A04DB35
:10072000203A21FA02F00021704721FA02F3D0406A
:10073000C2F12002914008431946704700BFFEE70E
:10074000002004E00021054A1154411C88B26428AD
:10075000F8DB0021024A116070470000FC00002015
:100760001C0000207047000010B5044621460448D4
:10077000FFF72AFD08B1012010BD0020FCE70000B2
:10078000FC0000202DE9F041024600250026002053
:1007900000230024002791F803C00CF00F0591F806
:1007A00003C00CF0100CBCF1000F03D091F802C094
:1007B0004CEA050591F800C0BCF1000F31D0146877
:1007C00000202BE04FF0010C0CFA00F3B1F800C050
:1007D0000CEA03069E4220D183004FF00F0C0CFA66
:1007E00003F7BC4305FA03FC4CEA040491F803C088
:1007F000BCF1280F06D14FF0010C0CFA00FCC2F836
:1008000014C00AE091F803C0BCF1480F05D14FF0C5
:10081000010C0CFA00FCC2F810C0401C0828D1D30F
:100820001460B1F800C0BCF1FF0F34DD5468002043
:100830002EE000F1080C4FF0010808FA0CF3B1F8B3
:1008400000C00CEA03069E4221D183004FF00F0C3A
:100850000CFA03F7BC4305FA03FC4CEA040491F8D4
:1008600003C0BCF1280F05D100F1080C08FA0CF800
:10087000C2F8148091F803C0BCF1480F07D100F111
:10088000080C4FF0010808FA0CF8C2F81080401C60
:100890000828CED35460BDE8F08100BFFEE700BF5A
:1008A000FEE7704770B5002100230F22C47804B31F
:1008B000154C246804F4E064C4F5E064210AC1F135
:1008C0000403CA40447804FA03F1847814402143B5
:1008D00009010E4C0678A155047804F01F05012487
:1008E000AC4005786D11AD0005F1E025C5F800417B
:1008F00009E0047804F01F050124AC40044D06789B
:10090000761145F8264070BD0CED00E000E400E0F3
:1009100080E100E002490143024A11607047000093
:100920000000FA050CED00E07047000029B1064A0E
:10093000D2690243044BDA6104E0034AD26982437C
:10094000014BDA61704700000010024029B1064AED
:1009500012690243044B1A6104E0034A126982439C
:10096000014B1A61704700000010024029B1064A8D
:1009700092690243044B9A6104E0034A92698243FC
:10098000014B9A61704700000010024029B1064AED
:10099000D2680243044BDA6004E0034AD26882431F
:1009A000014BDA60704700000010024030B50021B2
:1009B0000022002400232D4D6D6805F00C0121B1AB
:1009C000042905D0082923D105E0294D056022E03E
:1009D000274D05601FE0254D6D6805F47012234D0D
:1009E0006D6805F48034022505EB92421CB9214D57
:1009F000554305600BE01D4D6D6805F400351DB1D4
:100A00001C4D5543056002E0194D5543056002E059
:100A1000174D056000BF00BF144D6D6805F0F00173
:100A20000909154D6B5C0568DD4045600F4D6D682B
:100A300005F4E061090A104D6B5C4568DD40856096
:100A40000A4D6D6805F46051C90A0B4D6B5C456831
:100A5000DD40C560054D6D6805F44041890B074DCB
:100A60006B5CC568B5FBF3F5056130BD0010024055
:100A700000127A0000093D00000000201000002054
:100A80007047000070B505460E4614211648FFF762
:100A900084FB01F0E9F80446012C04D131462846D4
:100AA00001F0C2F90446012C13D110A10E4800F048
:100AB00069FC0D4800F018F9322001F01DF910A072
:100AC00000F012F9124800F00FF90CA000F00CF938
:100AD00009E021460FA000F045FC9623032212A155
:100AE00012A000F033F970BD60010020B3C9B9A6AF
:100AF000B7A2CBCDB5BD7365727665720D0A0000E5
:100B0000CAD5B5BDBBD8B8B4A3BA0D0A0000000061
:100B1000FC0000206572726F725F636F64653A203B
:100B200025640D0A000000004F4B000041542B4388
:100B30004950434C4F53450010B500F001F810BD2B
:100B40000CB50020019000903348006840F48030DC
:100B50003149086000BF3048006800F40030009060
:100B60000198401C0190009818B90198B0F5A06F49
:100B7000F1D12948006800F4003010B10120009044
:100B800001E0002000900098012843D1234800682C
:100B900040F01000214908600846006820F003007A
:100BA00008600846006840F0020008601A48406883
:100BB000194948600846406848600846406840F463
:100BC000806048600846406820F47C104860084611
:100BD000406840F4E81048600846006840F08070C3
:100BE000086000BF0C48006800F000700028F9D0D1
:100BF0000948406820F003000749486008464068FB
:100C000040F00200486000BF0348406800F00C005C
:100C10000828F9D10CBD000000100240002002405D
:100C2000042808D14FF0E021096941F004014FF098
:100C3000E022116107E04FF0E021096921F0040191
:100C40004FF0E022116170477047000010B5044674
:100C50006FF00400FFF7E4FFE11704EB5171C1F3FB
:100C6000C701074A11701046007800EB4001C1EB44
:100C7000C0104FF6FF7101EAC0000249088010BDA4
:100C8000180000201A00002010B51348006840F03A
:100C900001001149086008464068104908400E49A3
:100CA0004860084600680E4908400B49086008463D
:100CB000006820F4802008600846406820F4FE00A8
:100CC00048604FF41F008860FFF736FF4FF0006068
:100CD0000449086010BD0000001002400000FFF849
:100CE000FFFFF6FE08ED00E010B504460BE000BF84
:100CF0004021074800F012FA0028F9D014F8011B2F
:100D0000034800F0D8FA20780028F0D110BD000088
:100D10000038014010B5044621460AA000F022FB2D
:100D20000BE000BF4021084800F0F8F90028F9D096
:100D300014F8011B044800F0BEFA20780028F0D116
:100D400010BD000025730000004400402DE9F04173
:100D500080460C4615461E4600270EE0404600F031
:100D60002BF8B0B200F0C8FF2046FFF7FDFC10B131
:100D70000120BDE8F081781CC7B2AF42EEDB002055
:100D8000F7E72DE9F04180460C4615461E46002740
:100D90000EE0404600F01EF8B0B200F0ADFF204675
:100DA000FFF7E2FC10B10120BDE8F081781CC7B26A
:100DB000AF42EEDB0020F7E710B50446FFF7C0FCBA
:100DC0002046FFF7A7FF02A0FFF7A4FF10BD000019
:100DD0000D0A000010B50446FFF7B2FC2046FFF7ED
:100DE00099FF10BD10B540F22551204800F0A3F93D
:100DF000002839D01D4800F059FAC4B2242C02D181
:100E000000201B4908801A4801880088401C184AA5
:100E10001080184844540078242825D115480079BA
:100E20004D2821D11348407943281DD10A2C14D1D3
:100E300050211148FFF7B1F90D4802880D490E48BD
:100E4000FFF792F901200C4981F850000020084971
:100E50000880C8210748FFF7A0F905480088C8287E
:100E600002DBC8200249088010BD000000380140A4
:100E70001600002034000020A101002010B586B02B
:100E80000446012144F20400FFF770FD254800F0FC
:100E9000F7F84FF40070ADF8140018208DF8170023
:100EA00003208DF8160005A91F48FFF76BFC4FF4CF
:100EB0008060ADF8140004208DF8170005A91A48C9
:100EC000FFF760FC01940020ADF80800ADF80A00BF
:100ED000ADF80C00ADF810000C20ADF80E0001A923
:100EE000104800F077F925208DF8000002208DF8D9
:100EF000010001208DF802008DF803006846FFF71D
:100F0000D1FC012240F22551064800F03EF90121B2
:100F1000044800F0A8F84021024800F09BF806B011
:100F200010BD0000003801400008014010B5002449
:100F300040F225510D4800F0FEF8B0B10B4800F02A
:100F4000B5F9C4B221460AA000F00CFA09480A49D2
:100F50000968445408480068401C0749086008466E
:100F60000068642801D30020086010BD00440040E0
:100F700025630000FC0000201C00002010B586B096
:100F8000044601214804FFF7D1FC01210420FFF7AA
:100F9000EDFC254800F074F80420ADF8140018208A
:100FA0008DF8170003208DF8160005A91F48FFF7DC
:100FB000E9FB0820ADF8140004208DF8170005A9FE
:100FC0001A48FFF7DFFB01940020ADF80800ADF8E8
:100FD0000A00ADF80C00ADF810000C20ADF80E00C2
:100FE00001A9114800F0F6F826208DF80000012034
:100FF0008DF8010000208DF8020001208DF803001B
:101000006846FFF74FFC012240F22551064800F0E8
:10101000BCF80121044800F026F84021024800F005
:1010200019F806B010BD000000440040000801405F
:1010300010B540F22551064800F07DF838B104485B
:1010400000F034F9C4B22146014800F034F910BD73
:101050000048004001F40072B2F5007F00D100BFEB
:10106000CA430280704721B1828942F400528281D2
:1010700004E082894DF6FF731A40828170470000B8
:1010800010B504462048844209D101218803FFF7A6
:101090007DFC00214FF48040FFF778FC32E01B48D4
:1010A000844209D101214804FFF750FC00214FF48C
:1010B0000030FFF74BFC25E01548844209D101219F
:1010C0008804FFF743FC00214FF48020FFF73EFC2B
:1010D00018E01048844209D10121C804FFF736FC0A
:1010E00000214FF40020FFF731FC0BE00A48844256
:1010F00008D101210805FFF729FC00214FF48010D9
:10110000FFF724FC10BD00000038014000440040FF
:1011100000480040004C00400050004002460020C3
:10112000B1F5007F00D100BF13880B400BB1012047
:1011300000E00020704770B502460024002300251F
:10114000002040F66A16B14200D100BFC1F342153B
:1011500001F01F03012606FA03F3012D02D196893F
:10116000334006E0022D02D1168A334001E0968A10
:1011700033400C12012606FA04F41688344013B1E9
:101180000CB1012000E0002070BDF0B50346002442
:1011900000260025002040F66A17B94200D100BFA2
:1011A0001846C1F3421401F01F06012707FA06F59D
:1011B000012C01D10C3004E0022C01D1103000E0F0
:1011C00014301AB107682F43076002E00768AF4385
:1011D0000760F0BD2DE9F04786B005460E460024B5
:1011E000A24600BFA1460027B08900B100BF2F462C
:1011F0002C8A4CF6FF700440F08804432C82AC89A2
:101200004EF6F3100440B0883189084371890843D1
:101210000443AC81AC8A4FF6FF400440B0890443DC
:10122000AC8201A8FFF7C2FB1F48874202D1DDF85C
:1012300010A001E0DDF80CA0A88900F4004040B146
:101240000AEBCA0000EB0A1031684900B0FBF1F864
:1012500007E00AEBCA0000EB0A1031688900B0FB16
:10126000F1F86420B8FBF0F004012009642101FBCF
:101270001089A88900F4004040B1322000EBC90079
:10128000B0FBF1F000F00700044308E0322000EB6F
:1012900009106421B0FBF1F000F00F0004432C8131
:1012A00006B0BDE8F087000000380140014688889C
:1012B000C0F308007047C1F308028280704700BF86
:1012C000FEE700002DE9F04105460027FFF738FA58
:1012D0003CE020A0FFF770FD642000F00DFD00242D
:1012E0002CE01F48005D2B2826D11D49601C085C9E
:1012F000432821D1A01C085C52281DD1E01C085CA9
:10130000452819D1201D085C472815D1601D085CAF
:101310003A2811D1E01D085C31280DD104F10900F3
:10132000085C312804D004F10900085C352803D199
:1013300001270120BDE8F081601CC4B2642CD0DB21
:10134000701CC6B2AE4201DD0020F3E7002FC0D012
:101350000020EFE741542B435245473F0000000077
:10136000FC0000200FB4054B10B503A9044A0298F5
:1013700000F0DEF810BC5DF814FB0000451D00080D
:10138000300000200FB4084B10B504A902AA03983E
:1013900000F0CEF8044602A9002000F060FC2046D0
:1013A00010BC5DF814FB00005F1C000802E008C8D8
:1013B000121F08C1002AFAD170477047002001E0CF
:1013C00001C1121F002AFBD1704700002DE9FF5F09
:1013D000DDE90220010DDDF838B0024318D044F6F3
:1013E0001050A1F2FF3141430D140F98012820D075
:1013F000A5EB0B00401C5FEA000A4FF00004474ECB
:10140000DFF81C91A046504616D5CAF1000728E027
:101410000F98012443A2012808D0002100980F9BB7
:10142000C0E90021C0E90243BDE8FF9F6FEA0B015C
:10143000F4E7CBF10000DEE7074612E0F80707D03B
:101440002246334640464946FFF7B4F8804689466F
:101450002246334610461946FFF7ACF804460E46BE
:101460007F10002FEAD1DDE90201BAF1000F4246F8
:101470004B4602DAFFF79EF801E0FEF767FF0446ED
:101480000E460022284BFFF71FF903D84FF0FF301C
:10149000014607E00022254B20463146FEF7AFFE0D
:1014A000FFF7FAF8102409E0002C0ADB0A220023D7
:1014B000FEF7D1FF019B30321A55641E50EA01023B
:1014C000F2D1641C019AC4F1110314440F9A012A49
:1014D00003D0012208430DD10AE0084304D00020C4
:1014E0004FF0110B0F9080E7A3EB0B056D1E0DE085
:1014F0005B4504DD4FF0000205F1010504E003DA6D
:101500004FF00002A5F10105002AECD000980F99D8
:10151000C0E90231C0E9004586E700000000244030
:101520000000F03F300000000000F0430000E03F0A
:101530002DE9FF4F95B09B468946064600250FE2F0
:10154000252877D100242746F84A0121059400E098
:10155000044316F8013F203B01FA03F01042F7D193
:1015600030782A2811D06FF02F033078A0F13002A4
:10157000092A16D8059A44F0020402EB820203EB12
:1015800042021044761C0590EFE759F8042B0592AF
:10159000002A03DA504244F40054059044F0020457
:1015A000761C30782E2816D116F8010F44F004046A
:1015B0002A280DD06FF02F023078A0F13003092BCC
:1015C00009D807EB870302EB4303C718761CF3E740
:1015D00059F8047B761C30786C280FD006DC4C2838
:1015E00017D068280DD06A2814D104E0742810D0D0
:1015F0007A280FD10DE044F400140AE044F480147A
:1016000001E044F440147278824202D104F580145F
:10161000761C761C307866280BD013DC582877D0DF
:1016200009DC002875D04528F6D04628F4D0472894
:101630001AD19DE118E0632835D0642879D0652857
:1016400012D195E1702873D008DC6728F1D06928A1
:101650006FD06E280DD06F2806D1B5E073282CD03E
:10166000752875D0782874D05A46179990476D1C04
:1016700075E1C4F30250022809D003280DD0D9F82F
:10168000001004280DD00D6009F1040967E1D9F8B4
:101690000010EA17C1E90052F6E7D9F800100D80F2
:1016A000F2E70D70F0E719F8041B8DF80010002028
:1016B0008DF80100EA46012003E059F804AB4FF031
:1016C000FF3061074FF0000102D40DE008F1010185
:1016D0008846B9420FDA8045F8DB1AF8081000296D
:1016E000F4D108E008F1010188468142FADB1AF8DA
:1016F00008100029F6D105985B46A0EB08072146A3
:101700003846179A00F094FA284400EB080507E0E1
:101710004DE029E10DE01AF8010B5A461799904760
:10172000B8F10108F7D25B4621463846179A13E113
:1017300042E00A220092C4F302524FF0000A022A49
:1017400008D059F804CB032A4FEAEC710AD00DE017
:1017500029E02AE009F1070121F00702F2E802C1BD
:10176000914609E00FFA8CFC4FEAEC71042A03D190
:101770004FFA8CFC4FEAEC71002907DA0A46002187
:10178000DCF1000C61EB02012D2202E0220504D500
:101790002B228DF80420012203E0E20701D0202251
:1017A000F7E7904659E00A2102E010220DE01021EF
:1017B0004FF0000A00910BE010224FF0000A44F0B5
:1017C00004040827009203E008224FF0000A009268
:1017D000C4F30252022A05D059F804CB0021032A8F
:1017E00008D009E009F1070121F00702F2E802C17F
:1017F000914605E01FFA8CFC042A01D10CF0FF0C85
:101800004FF00008220728D5702806D0009B83F0EF
:10181000100353EA0A0305D00EE040228DF804209D
:10182000012208E05CEA010206D030228DF8042093
:101830008DF8050002229046009B83F0080353EACE
:101840000A030AD15CEA010201D1620705D5302200
:101850008DF804204FF001087F1E582804D034A0D2
:1018600003900EA802900DE036A0F9E753466046BB
:10187000009AFEF7F0FD84460398825C0298401EB1
:10188000029002705CEA0100F0D1029806A9081AE1
:1018900000F1200A600702D524F4803400E001271B
:1018A000574502DDA7EB0A0000E0002000EB0A012B
:1018B000009005984144401A0590E00306D45B4629
:1018C0002146179A059800F0B3F90544002706E071
:1018D00001A85A46C05D179990476D1C7F1C47456B
:1018E000F6DBE0030CD55B462146179A059800F01D
:1018F0009FF9054404E030205A46179990476D1C23
:101900000099481E00900029F5DC08E00298029931
:101910005A460078491C0291179990476D1CBAF1FC
:101920000001AAF1010AF1DC65E1000009280100CB
:101930003031323334353637383961626364656645
:101940000000000030313233343536373839414207
:10195000434445460000000000F058F90544761C59
:10196000307800287FF4ECAD19B02846BDE8F08F40
:10197000620700D4062709F1070222F0070CFCE8F1
:101980000223E14603F000485FEA080C02D00FF2A0
:10199000702C0DE05FEA045C02D50FF2682C07E0C2
:1019A0005FEAC47C02D00FF2602C01E0AFF2700C51
:1019B0004FF0FF3823F00043CDF850C065280CD01D
:1019C00006DC452809D046281DD047283DD13DE0FA
:1019D000662818D067287ED138E00021112F01DB5E
:1019E000112000E0781CCDE9000106A90EA8FFF740
:1019F000EDFCDDE90F010E9A03910021009207F141
:101A0000010A04914DE04FF000400097CDE901102C
:101A100006A90EA8FFF7DAFCDDE90F0203920E9B80
:101A200011990022DDF80CA00093049211B9791CE1
:101A300000EB010AB7EB0A0004D4C0F1FF3007F154
:101A4000010A0490AAEB0700019044E0012F00DA9C
:101A500001270021112F01DD112000E03846CDE9DA
:101A6000000106A90EA8FFF7B1FCDDE90F010E9AEF
:101A70000391002104910092BA4621070CD40399E6
:101A8000514500DA8A46BAF1010F05DD009AAAF144
:101A90000101515C302908D0B84202DA10F1040F7C
:101AA00006DA0121CDE9011015E0AAF10101E9E70B
:101AB000002805DC049901440491AAEB000102E02E
:101AC000411C514500DD8A460499401A401C019092
:101AD0004FF000400290200704D40198504501DBEC
:101AE000CDF8048000208DF84F0002980DF14F07CB
:101AF000B0F1004F25D02B200E9002984FF0020835
:101B000000280CDA404202902D200E9007E00A21B6
:101B10000298FEF78AFC3031029007F8011DB8F1F7
:101B20000001A8F10108F2DC02980028EFD1791E2B
:101B30000E980870307800F0200040F0450007F85B
:101B4000020D12A8C01B00F107081498007800B11C
:101B5000012000EB0A01019801EBE0710598414476
:101B6000401A401E0590E00306D45B462146179AB2
:101B7000059800F05DF805441498007818B15A46AD
:101B8000179990476D1CE00324D55B462146179AB0
:101B9000059800F04DF805441CE00498002807DB88
:101BA000DDE90301884203DD0098405C179901E0FC
:101BB000179930205A469047049805F10105401CBA
:101BC00004900198401E019004D12E205A46179986
:101BD00090476D1CBAF10001AAF1010ADDDC05E0B5
:101BE00017F8010B5A46179990476D1CB8F1000180
:101BF000A8F10108F4DC5B462146179A0598ABE68C
:101C00002D0000002B000000200000002DE9F04115
:101C1000044600251E461746880404D405E03946CC
:101C20002020B0476D1C641EF9D52846BDE8F08120
:101C30002DE9F041044600251E469046C80301D513
:101C4000302700E02027880404D505E041463846C7
:101C5000B0476D1C641EF9D52846BDE8F0810A68BE
:101C6000531C0B601070704738B51B208DF80000B6
:101C700000208DF801003223062216A116A0FFF7DE
:101C800065F804462CB96846FFF744F84FF0FF307A
:101C900038BD3223042211A112A0FFF757F80446E1
:101CA00014B96FF00100F3E70320FFF70BFB0446C4
:101CB00014B96FF00200EBE73223022205A10CA059
:101CC000FFF744F8044614B96FF03200E0E7012052
:101CD000DEE700004F4B00004154000052454144F4
:101CE0005900000041542B4350494E3F0000000072
:101CF00041544530000000000146114A12884A4311
:101D00004FF0E0235A6100229A611A46126942F0AC
:101D100001021A6100BF4FF0E022106900F00102D9
:101D20001AB100F48032002AF5D04FF0E022126997
:101D300022F001024FF0E0231A6100229A617047FD
:101D40001A00002070B504460D46E1B20548FFF7C1
:101D5000B2FA00BF80210348FFF7E0F90028F9D06C
:101D6000204670BD00380140B4B04820FEF76EFF39
:101D70004FF4A060FEF7CEFD4FF4E130FFF77EF8A0
:101D80004FF4E130FFF7FAF812A0FEF7ADFF0024A0
:101D900004E06420FFF7B0FF601CC4B2142CF8DB31
:101DA00017E0154803C8CDE90001144814A10CC878
:101DB00002A8FFF7E7FA02A915A0FEF763FE0024C8
:101DC00004E06420FFF798FF601CC4B2142CF8DB19
:101DD00000BFE6E7CFB5CDB3C6F4B6AF2E2E2E2E9C
:101DE0002E2E2E2E2E2E2E2E2E2E2E2E2E2E2E2E13
:101DF0002E2E2E0D0A0000002000002028000020BA
:101E00006C6F3A256C662C6C613A256C660000009C
:101E100033392E3130382E3131302E3132312C31B0
:101E20003030303100000000F8B505460E461A206B
:101E30008DF8000000208DF801006423032237A1F3
:101E400039A0FEF783FF0446012C1DD1462303224F
:101E500039A13AA0FEF77AFF044614B96FF00D00DD
:101E6000F8BD3046FEF756FF0A20FFF745FFFA237C
:101E7000032235A16846FEF784FF044614B96FF0CB
:101E80000800EDE70120EBE74FF4AF73052225A131
:101E90002FA0FEF75BFF044614B96FF00A00DFE7DE
:101EA000642303221FA12DA0FEF750FF044614B99E
:101EB0006FF03100D4E72D212C48FEF76EF92CA1EC
:101EC0002A48FEF793F929462848FEF771F9FA23C4
:101ED000062212A12548FEF739FF044614B96FF017
:101EE0000C00BDE74623032213A114A0FEF72EFF2A
:101EF000044614B96FF00D00B2E73046FEF70AFF52
:101F0000FA23022210A16846FEF73BFF044614B9EB
:101F10006FF00800A4E70120A2E70000434F4E4EF7
:101F2000454354204F4B000041542B4349505354D8
:101F300041545553000000003E00000041542B4323
:101F4000495053454E44000053454E44204F4B00EA
:101F500041542B43474154543D31000041542B43DD
:101F6000474143543D312C310000000074010020F2
:101F700041542B43495053544152543D5443502CE7
:101F800000000000A41F0008000000203400000032
:101F9000AC130008D81F000834000020C40500005E
:101FA000BC13000800000000010203040102030446
:101FB00006070809020406080000000000000000EF
:101FC0000000000000000000000000000000000011
:081FD000000000000000000009
:0400000508000131BD
:00000001FF
